:020000040800F2
:100000000000022065BD0008D5690008D769000816
:10001000D9690008DB690008DD69000800000000FC
:10002000000000000000000000000000C1450008C2
:10003000DF6900080000000061460008E16900086F
:10004000B9BD0008B9BD0008B9BD0008B9BD0008B8
:10005000B9BD0008B9BD0008556B0008B9BD00085E
:100060005F6B0008696B0008736B0008B9BD00087E
:10007000B9BD0008E9690008B9BD0008F9690008C0
:10008000B9BD0008B9BD0008D16A0008096A0008B6
:10009000196A0008296A0008396A00087D6B00089F
:1000A000B9BD0008056B0008B9BD0008B9BD00085E
:1000B000B9BD0008B9BD0008B9BD0008356B00081E
:1000C000456B0008B9BD0008B9BD0008B9BD0008FE
:1000D000B9BD0008B9BD0008B9BD0008B9BD000828
:1000E000A36B0008B9BD0008B9BD0008B9BD000880
:1000F0001D6B0008496A0008B9BD0008B9BD0008B9
:10010000B9BD0008B9BD0008B9BD0008B9BD0008F7
:10011000616A0008B9BD0008B9BD0008B9BD000892
:10012000B9BD0008B9BD0008B9BD0008B9BD0008D7
:10013000B9BD00080000000000000000B9BD0008C3
:10014000B9BD0008B9BD0008B9BD0008716A000852
:10015000B9BD0008B9BD0008B9BD0008B9BD0008A7
:10016000B9BD0008B9BD0008B9BD0008B9BD000897
:10017000B9BD0008B9BD0008000000000000000083
:08018000B9BD0008B9BD00087B
:1001900010B5054C237833B9044B13B10448AFF3C1
:1001A00000800123237010BD88050020000000009E
:1001B000C01B020808B5034B1BB103490348AFF34A
:1001C000008008BD000000008C050020C01B020854
:1001D00010F8012B11F8013B012A28BF9A42F7D0F1
:1001E000D01A7047034613F8012B002AFBD1181AC6
:1001F000013870470000000000000000000000000F
:1002000001F0FF01102A2BDB10F0070F08D010F8C7
:10021000013B013A8B422DD010F0070F42B3F6D1CB
:10022000F0B441EA012141EA014122F007047FF0E4
:1002300000070023F0E80256083C85EA010586EA3B
:10024000010685FA47F5A3FA87F586FA47F6A5FA77
:1002500087F68EB9EED1F0BC01F0FF0102F0070283
:1002600032B110F8013B013A83EA010313B1F8D12E
:100270000020704701387047002D06BF354603380F
:10028000073815F0010F07D1013015F4807F02BF48
:10029000013015F4C03F0130F0BC0138704700BF99
:1002A00081F0004102E000BF83F0004330B54FEA27
:1002B00041044FEA430594EA050F08BF90EA020F94
:1002C0001FBF54EA000C55EA020C7FEA645C7FEA27
:1002D000655C00F0E2804FEA5454D4EB5555B8BF4A
:1002E0006D420CDD2C4480EA020281EA030382EABB
:1002F000000083EA010180EA020281EA0303362D4D
:1003000088BF30BD11F0004F4FEA01314FF4801C1F
:100310004CEA113102D0404261EB410113F0004F31
:100320004FEA03334CEA133302D0524263EB4303E8
:1003300094EA050F00F0A780A4F10104D5F1200E86
:100340000DDB02FA0EFC22FA05F2801841F10001E1
:1003500003FA0EF2801843FA05F359410EE0A5F1B5
:1003600020050EF1200E012A03FA0EFC28BF4CF0E6
:10037000020C43FA05F3C01851EBE37101F000459C
:1003800007D54FF0000EDCF1000C7EEB00006EEBA9
:100390000101B1F5801F1BD3B1F5001F0CD3490833
:1003A0005FEA30004FEA3C0C04F101044FEA44528A
:1003B00012F5800F80F09A80BCF1004F08BF5FEA11
:1003C000500C50F1000041EB045141EA050130BDF1
:1003D0005FEA4C0C404141EB010111F4801FA4F194
:1003E0000104E9D191F0000F04BF01460020B1FAE9
:1003F00081F308BF2033A3F10B03B3F120020CDA21
:100400000C3208DD02F1140CC2F10C0201FA0CF0FE
:1004100021FA02F10CE002F11402D8BFC2F1200C63
:1004200001FA02F120FA0CFCDCBF41EA0C01904019
:10043000E41AA2BF01EB0451294330BD6FEA040462
:100440001F3C1CDA0C340EDC04F11404C4F120024D
:1004500020FA04F001FA02F340EA030021FA04F35F
:1004600045EA030130BDC4F10C04C4F1200220FAB6
:1004700002F001FA04F340EA0300294630BD21FAF4
:1004800004F0294630BD94F0000F83F4801306BFBA
:1004900081F480110134013D4EE77FEA645C18BFAE
:1004A0007FEA655C29D094EA050F08BF90EA020F45
:1004B00005D054EA000C04BF1946104630BD91EA3D
:1004C000030F1EBF0021002030BD5FEA545C05D140
:1004D0004000494128BF41F0004130BD14F580047F
:1004E0003CBF01F5801130BD01F0004545F0FE41F3
:1004F00041F470014FF0000030BD7FEA645C1ABF28
:10050000194610467FEA655C1CBF0B46024650EA5E
:10051000013406BF52EA033591EA030F41F400218A
:1005200030BD00BF90F0000F04BF0021704730B510
:100530004FF4806404F132044FF000054FF00001E5
:1005400050E700BF90F0000F04BF0021704730B5A6
:100550004FF4806404F1320410F0004548BF40427B
:100560004FF000013EE700BF42004FEAE2014FEAD0
:1005700031014FEA02701FBF12F07F4393F07F4FAB
:1005800081F06051704732F07F4208BF704793F0AE
:100590007F4F04BF41F40021704730B54FF46074C1
:1005A00001F0004521F000411CE700BF50EA0102C4
:1005B00008BF704730B54FF000050AE050EA01026D
:1005C00008BF704730B511F0004502D5404261EBDD
:1005D00041014FF4806404F132045FEA915C3FF41E
:1005E000D8AE4FF003025FEADC0C18BF03325FEABB
:1005F000DC0C18BF033202EBDC02C2F1200300FA6C
:1006000003FC20FA02F001FA03FE40EA0E0021FA90
:1006100002F11444BDE600BF70B54FF0FF0C4CF47E
:10062000E06C1CEA11541DBF1CEA135594EA0C0F30
:1006300095EA0C0F00F0DEF82C4481EA030621EA6B
:100640004C5123EA4C5350EA013518BF52EA0335A6
:1006500041F4801143F4801338D0A0FB02CE4FF058
:100660000005E1FB02E506F00042E0FB03E54FF088
:100670000006E1FB03569CF0000F18BF4EF0010E80
:10068000A4F1FF04B6F5007F64F5407404D25FEA7C
:100690004E0E6D4146EB060642EAC62141EA55512F
:1006A0004FEAC52040EA5E504FEACE2EB4F1FD0C71
:1006B00088BFBCF5E06F1ED8BEF1004F08BF5FEAEF
:1006C000500E50F1000041EB045170BD06F00046A1
:1006D00046EA010140EA020081EA0301B4EB5C044E
:1006E000C2BFD4EB0C0541EA045170BD41F4801146
:1006F0004FF0000E013C00F3AB8014F1360FDEBF6B
:10070000002001F0004170BDC4F10004203C35DA46
:100710000C341BDC04F11404C4F1200500FA05F3C9
:1007200020FA04F001FA05F240EA020001F000426A
:1007300021F0004110EBD37021FA04F642EB0601E0
:100740005EEA430E08BF20EAD37070BDC4F10C040A
:10075000C4F1200500FA04F320FA05F001FA04F2CE
:1007600040EA020001F0004110EBD37041F10001BA
:100770005EEA430E08BF20EAD37070BDC4F12005C5
:1007800000FA05F24EEA020E20FA04F301FA05F22D
:1007900043EA020321FA04F001F0004121FA04F2D5
:1007A00020EA020000EBD3705EEA430E08BF20EAA5
:1007B000D37070BD94F0000F0FD101F000464000DF
:1007C00041EB010111F4801F08BF013CF7D041EA61
:1007D000060195F0000F18BF704703F00046520065
:1007E00043EB030313F4801F08BF013DF7D043EA36
:1007F0000603704794EA0C0F0CEA135518BF95EAEC
:100800000C0F0CD050EA410618BF52EA4306D1D172
:1008100081EA030101F000414FF0000070BD50EA91
:10082000410606BF1046194652EA430619D094EA1B
:100830000C0F02D150EA013613D195EA0C0F05D105
:1008400052EA03361CBF104619460AD181EA030159
:1008500001F0004141F0FE4141F470014FF0000011
:1008600070BD41F0FE4141F4780170BD70B54FF0AC
:10087000FF0C4CF4E06C1CEA11541DBF1CEA13552C
:1008800094EA0C0F95EA0C0F00F0A7F8A4EB05040E
:1008900081EA030E52EA03354FEA013100F0888005
:1008A0004FEA03334FF0805545EA131343EA1263CE
:1008B0004FEA022245EA111545EA10654FEA002683
:1008C0000EF000419D4208BF964244F1FD0404F53C
:1008D000407402D25B084FEA3202B61A65EB030598
:1008E0005B084FEA32024FF480104FF4002CB6EB55
:1008F000020E75EB030E22BFB61A754640EA0C00D5
:100900005B084FEA3202B6EB020E75EB030E22BF14
:10091000B61A754640EA5C005B084FEA3202B6EB55
:10092000020E75EB030E22BFB61A754640EA9C0014
:100930005B084FEA3202B6EB020E75EB030E22BFE4
:10094000B61A754640EADC0055EA060E18D04FEAA2
:10095000051545EA16754FEA06164FEAC30343EA42
:1009600052734FEAC2025FEA1C1CC0D111F4801F0F
:100970000BD141EA00014FF000004FF0004CB6E708
:1009800011F4801F04BF01430020B4F1FD0C88BFA7
:10099000BCF5E06F3FF6AFAEB5EB030C04BFB6EBB2
:1009A000020C5FEA500C50F1000041EB045170BDA5
:1009B0000EF0004E4EEA113114EB5C04C2BFD4EBD2
:1009C0000C0541EA045170BD41F480114FF0000E56
:1009D000013C90E645EA060E8DE60CEA135594EAD2
:1009E0000C0F08BF95EA0C0F3FF43BAF94EA0C0FD5
:1009F0000AD150EA01347FF434AF95EA0C0F7FF44A
:100A000025AF104619462CE795EA0C0F06D152EA9D
:100A100003353FF4FDAE1046194622E750EA410681
:100A200018BF52EA43067FF4C5AE50EA41047FF492
:100A30000DAF52EA43057FF4EBAE12E74FF0FF3CF7
:100A400006E000BF4FF0010C02E000BF4FF0010CC8
:100A50004DF804CD4FEA410C7FEA6C5C4FEA430C41
:100A600018BF7FEA6C5C1BD001B050EA410C0CBF90
:100A700052EA430C91EA030F02BF90EA020F0020F2
:100A8000704710F1000F91EA030F58BF994208BF59
:100A900090422CBFD8176FEAE37040F00100704716
:100AA0004FEA410C7FEA6C5C02D150EA013C07D16D
:100AB0004FEA430C7FEA6C5CD6D152EA033CD3D0B8
:100AC0005DF8040B704700BF8446104662468C46B2
:100AD0001946634600E000BF01B5FFF7B7FF0028E5
:100AE00048BF10F1000F01BD4DF808EDFFF7F4FF0E
:100AF0000CBF012000205DF808FB00BF4DF808ED99
:100B0000FFF7EAFF34BF012000205DF808FB00BFBB
:100B10004DF808EDFFF7E0FF94BF012000205DF8DD
:100B200008FB00BF4DF808EDFFF7CEFF94BF012092
:100B300000205DF808FB00BF4DF808EDFFF7C4FF8B
:100B400034BF012000205DF808FB00BF4FEA410CD4
:100B50007FEA6C5C02D150EA013C0AD14FEA430CB7
:100B60007FEA6C5C02D152EA033C02D14FF00000F4
:100B700070474FF0010070474FEA410212F5001232
:100B800015D211D56FF47873B3EB625212D94FEAD4
:100B9000C12343F0004343EA505311F0004F23FABE
:100BA00002F018BF404270474FF00000704750EA13
:100BB000013005D111F0004008BF6FF000407047D0
:100BC0004FF00000704700BF4A0011D212F500122A
:100BD00011D20DD56FF47873B3EB62520ED44FEA95
:100BE000C12343F0004343EA505323FA02F0704715
:100BF0004FF00000704750EA013002D14FF0FF3053
:100C000070474FF0000070474FEA4102B2F1E043F5
:100C100024BFB3F5001CDCF1FE5C0DD901F0004CE3
:100C20004FEAC0024CEA5070B2F1004F40EB830033
:100C300008BF20F00100704711F0804F21D113F15F
:100C40003872BCBF01F00040704741F480114FEA98
:100C50005252C2F11802C2F1200C10FA0CF320FA21
:100C600002F018BF40F001004FEAC1234FEAD3233E
:100C700003FA0CFC40EA0C0023FA02F34FEA4303A8
:100C8000CCE77FEA625307D150EA01331EBF4FF031
:100C9000FE4040F44000704701F0004040F0FE404C
:100CA00040F40000704700BF7BB972B90029BEBF95
:100CB00000204FF0004106E008BF00281CBF6FF085
:100CC00000414FF0FF3001F095B9ADF1080C6DE92E
:100CD00004CE002909DB002B1ADB00F04DF8DDF80B
:100CE00004E0DDE9022304B07047404261EB4101BA
:100CF000002B1BDB00F040F8DDF804E0DDE9022307
:100D000004B0404261EB4101524263EB4303704740
:100D1000524263EB430300F02FF8DDF804E0DDE915
:100D2000022304B0404261EB41017047524263EB41
:100D3000430300F021F8DDF804E0DDE9022304B00C
:100D4000524263EB4303704753B94AB9002908BFC5
:100D500000281CBF4FF0FF314FF0FF3001F04AB9BF
:100D6000ADF1080C6DE904CE00F006F8DDF804E002
:100D7000DDE9022304B070472DE9F047089E0446E0
:100D80008846002B4BD18A42154667D9B2FA82F2C7
:100D90004AB1C2F1200701FA02F320FA07F79540A1
:100DA00047EA030894404FEA154E230CB8FBFEF7C0
:100DB0001FFA85FC0EFB178843EA084307FB0CF17A
:100DC000994209D9EB1807F1FF3080F01B81994255
:100DD00040F21881023F2B445B1AA4B2B3FBFEF031
:100DE0000EFB103344EA034400FB0CFCA44509D974
:100DF0002C1900F1FF3380F00781A44540F20481F3
:100E000002382C4440EA0740A4EB0C0400271EB132
:100E1000D4400023C6E900433946BDE8F0878B4241
:100E200009D9002E00F0EB800027C6E90001384602
:100E30003946BDE8F087B3FA83F7002F47D18B42DC
:100E400002D3824200F2FA80841A61EB030301208C
:100E50009846002EE0D0C6E90048DDE702B9FFDE83
:100E6000B2FA82F2002A40F08F80491B4FEA154EF9
:100E70001FFA85F80127B1FBFEFC230C0EFB1C11A9
:100E800043EA014308FB0CF1994207D9EB180CF136
:100E9000FF3002D2994200F2CD808446591AA3B2A3
:100EA000B1FBFEF00EFB101443EA044408FB00F80B
:100EB000A04507D92C1900F1FF3302D2A04500F25A
:100EC000B6801846A4EB080440EA0C409FE7C7F13F
:100ED000200CBB4022FA0CFE4EEA030E01FA07F486
:100EE00020FA0CF521FA0CF34FEA1E482543B3FB18
:100EF000F8F92C0C08FB19331FFA8EFA44EA034365
:100F000009FB0AF49C4202FA07F200FA07F10BD936
:100F10001EEB030309F1FF3080F087809C4240F212
:100F20008480A9F1020973441B1BADB2B3FBF8F036
:100F300008FB103345EA034400FB0AFAA24508D92E
:100F40001EEB040400F1FF336BD2A24569D90238CD
:100F5000744440EA0940A0FB0289A4EB0A044C4512
:100F6000C2464B4654D351D0002E69D0B1EB0A058E
:100F700064EB030404FA0CFCFD40FC404CEA05055C
:100F8000C6E90054002747E7C2F1200320FA03F71F
:100F9000954001FA02F021FA03F34FEA154E384367
:100FA000010CB3FBFEF71FFA85F80EFB173341EA7D
:100FB000034107FB08F38B4204FA02F407D96918CE
:100FC00007F1FF3C2FD28B422DD9023F2944CB1A87
:100FD00081B2B3FBFEF00EFB103341EA034100FB8C
:100FE00008F38B4207D9691800F1FF3C17D28B42F6
:100FF00015D902382944C91A40EA07473BE7374662
:10100000304609E70746E7E61846FBE64145ABD21E
:10101000B8EB020A69EB0E0201381346A4E76046FA
:10102000E9E7184695E76746D1E781467CE702384D
:101030002C4447E7ACF1020C2B442FE7384608E775
:101040003746E9E603685A004CBF43F0004323F0FB
:1010500000431844704700BF61B32DE9F84F01F118
:10106000FF3A90460646D146002707EB090404EBF9
:10107000D4746410E50071190846FFF7E3FFA24538
:10108000834605F10800304409D0FFF7DBFFC34574
:1010900000F1FF3005D8404509D2671CE5E7C3459C
:1010A00005D9A74202D004F1FF39DEE70021084646
:1010B000BDE8F88F08467047012807D0022807D0FE
:1010C000044B00280CBF18460020704702487047A8
:1010D00002487047A5170008A9170008AD170008B7
:1010E00030B5254B83B004468D1E4BB301A928466D
:1010F000AFF30080F0B101992A46FFF7ADFF01463A
:10110000C0B1FFF79FFF4B68A064012B2ED0002BCE
:1011100001F1040026DBFFF795FF0023C4E9130368
:101120000368002B12DBFFF78DFF002320611846B8
:1011300003B030BD002323610923184603B030BD3E
:101140000E490F48091AC9100191D5E7C3F303608E
:10115000FFF7B2FF002814BF0023092320611846BF
:1011600003B030BD0123C4E91303D9E70023236191
:101170000523184603B030BD000000008854020863
:10118000984E02080368DA0710B5044606D49B0798
:1011900000F1480009D500F05FFC2368590709D524
:1011A0001A070ED5DB0613D510BD00F04DFC2368E1
:1011B0005907F5D404F1D00000F056FC23681A0753
:1011C000F0D404F5A87000F057FC2368DB06EBD4DC
:1011D00004F5E870BDE8104000F092BC036803B16C
:1011E00003441846704700BF09207047704700BF8E
:1011F00070B504460D4608E02B6C63612A462369EE
:10120000214601209847082808D1296C2046FFF77D
:1012100067FF06460028EFD01BF054FD0728FBD1DE
:101220003046296CFFF7E2FF281D00F001FC00BFEB
:101230002DE9F0470C1D054617460FCCADF5727D24
:1012400003AE0FC60FCC0FC60FCC0FC694E80F002D
:1012500002ACD5F80C80D5F8189086E80F00002372
:10126000236021E0236C6B614FF4F07221467AA871
:101270001BF09AFD2B697AAA294630469847889B2D
:10128000CDE900498246636431462B462A46012057
:10129000C0470746F8B94FF4F0727AA920461BF010
:1012A00083FDBAF1080F1CD1216C2846FFF718FF07
:1012B000002F08BF0926074618BF0A260028D1D0EC
:1012C000A36B46F01001CDE900492A466364012072
:1012D0002B46C04700B1092738460DF5727DBDE8A1
:1012E000F087BAF1070FF6D13846216CFFF77EFF81
:1012F00003A800F09DFB00BF406C7047F0B5CB6BBE
:101300000B640D1D0F4606460FCDF9B001AC0FC49E
:101310000FCD0FC40FCD0FC495E80F004FF0FF3570
:1013200084E80F00009506E033696A463146984725
:101330000828044608D110993046FFF7D1FE00284E
:10134000F2D0092079B0F0BD6846FFF71BFF062CEC
:10135000F7D139463046FFF74BFF00BF30B4DD6BA5
:10136000C160826119461D64002230BC60E700BF85
:1013700070B5C66843690B64BEB903690A46044682
:101380000D46014602209847072807D0082803D1B8
:1013900029462046FFF72CFF1BF094FC3046296CB1
:1013A000FFF724FF281D00F043FB0122FFF740FF59
:1013B0001BF088FCC2681AB1CA6B0A64002237E7C6
:1013C0009CE700BF704700BF836813B1014601204E
:1013D00018477047042907D8DFE801F0030806081A
:1013E00008000BB90F2A03D902207047012070476B
:1013F00000EB820218465368009A1360704700BFE2
:1014000010B584B0002303AC0A4600941946FFF7D8
:10141000E1FF039804B010BD042907D8DFE801F00C
:101420000308060808000BB90F2A03D902207047E9
:101430000120704700EB8200009A12684260184653
:10144000704700BF10B584B004AC002344F8042DED
:101450000A4600941946FFF7DFFF04B010BD00BF35
:10146000F0B5D36B1364151D07460E460FCDADF5D1
:101470000F7D17AC0FC40FCD0FC40FCD0FC495E86F
:101480000F004FF0FF3584E80F00169510E016A806
:10149000FFF7D8FF314616A8B84716AA694678B9AB
:1014A000049B08209847052804460AD0092807D03D
:1014B00026996846FFF714FE6A460C210028E6D0FC
:1014C000092416A8FFF75EFE20460DF50F7DF0BD3E
:1014D0002DE9F04F0D46C96C89B00C1D164600F081
:1014E000030B0A6806941F46002B68D0130CD9B270
:1014F00012048DF81D30022304EB810405928DF84F
:101500001C302B6DBBF1020F08BFAC6B13F0010355
:1015100046D1019300F008030093D4F80090B9F18C
:10152000000F00F0F380022F45D0B4F80090B4F81B
:1015300002800434AB6C28F0010A0F2130469A4433
:10154000FFF75EFF824534D829F0010353448342FC
:1015500094BF002001204FEA480808F0020809F073
:10156000010948EA0908B8F1010F3AD031D3B8F1BE
:10157000020F1AD1236823F0004ABBF1000F66D195
:1015800030B1009A002A6CD0BAF1000F00F09080C0
:10159000002B00DA04340AF1010304EB8304BCE7F6
:1015A000304605A900F046FB78B1092009B0BDE836
:1015B000F08F0020CFE7D4F804800834BAE7120295
:1015C00003230592ADF81C309BE7082009B0BDE865
:1015D000F08FBBF1000F02D0002840F0B48004343B
:1015E0009BE7BBF1000F18D1A8B1D4E90023991CE7
:1015F0004FEAD272D9D005F158010133049100F0BD
:10160000B580201DFFF7EAFD04AB0146284619F01E
:101610002BFF002867D108347FE70D213046D5F82D
:101620002080FFF7EDFE8045F5D1AB6A9C42F2D1F8
:101630002046FFF707FD0F2102463046FFF702FF65
:1016400030462A460021FFF7FDFE0720AEE70D21B8
:101650003046D5F82080FFF7D3FE804532D023688E
:1016600096E7BAF1000F23D005F1580304F10408FE
:10167000CDF808B0DDF800900397A3461C4602E0C1
:101680005745B94640D040460494FFF7A7FD04AB48
:1016900001460022284619F0E7FE09F1010708F18A
:1016A00004080028ECD0D1455C46DDE902B7D6D16C
:1016B00030460D21FFF7A4FE049B2862C5E90934DA
:1016C000062073E7AB6A9C42C9D104224FF00008A0
:1016D000A318C5E90AA8C5E90C23236843454DDBD7
:1016E0000123019357E780460D213046FFF788FE1E
:1016F000B8F1020F28623ED12B46049A43F82C2FF2
:101700006B62AC62062051E75C46D1E705A9304622
:1017100000F090FA00287FF448AF019B002B3FF4C3
:1017200054AF0F213046FFF76BFE0E2102463046C4
:10173000FFF788FE30461A4A0F21FFF783FE072085
:1017400009B0BDE8F08F2046FFF77CFC0434074663
:10175000AC63284619F0E6FE00283FF426AF304679
:101760003A460F21FFF76EFE07201FE730460D2196
:10177000FFF746FE2862049B6B62C2E70AF1010094
:1017800004EB8000FFF75EFC0F2102463046FFF7B6
:1017900059FE30462A464146FFF754FE072005E72A
:1017A000F9BC0108002393E6012391E602238FE6AA
:1017B0002DE9F0410546C4B0042906D8DFE801F060
:1017C0004D2B05030900032B5FD0022044B0BDE878
:1017D000F081002BF9D1102AF7D82B68DC0600F134
:1017E000F48022AC2046019200F094F9A86B019A93
:1017F0000023012606FA03F1114203D0016844F8E0
:10180000231004300133042BF4D1A863204600F0E8
:1018100077F90020DAE7012B4FEA124697B252D04F
:10182000052BD2D106EB0708B8F1200FCDD80F2E2B
:1018300040F29980B846002F40F0DB80AA6BAA6383
:101840000F2E40F2BE80B8F1000F02D002A800F0C7
:101850000BF9002044B0BDE8F081002BB5D1AC6B92
:1018600097B2281D012606FA03F1394203F101035C
:1018700002D0216801600434102B00F10400F2D181
:1018800012F40050E5D1AC63A0E7160C97B2F3193F
:10189000102B9AD82B681A075DD422AC204600F092
:1018A0000DF904EBC601AB6B3FB103EBC70218683F
:1018B00041F8040B04339342F9D12046AB6300F0A6
:1018C000DBF8002082E7F219102A3FF67EAF0F2ED8
:1018D0003FF67BAF2A68D10708D5284622F00302DD
:1018E00040F8482B019300F0B3F8019B019322AC20
:1018F000204600F0ADF8A96B019B002F00F0958009
:101900007F0004EBC6044FF00008043C01EB8702A3
:1019100051F8040B44F8040F9142F9D1B8F1000FCB
:101920000FD002AC102E314638BF102104EBC1019C
:10193000843902EBC80452F8040B41F8040F9442B6
:10194000F9D1012B7FF47BAF22AC0432AA6320468D
:1019500000F07AF87DE723F008032B6005F5A87006
:1019600000F0ACF899E7B8F1100F2A6843D9D00716
:10197000A8F110080BD5284622F0010242F002021D
:1019800040F8482B019300F06BF82A68019B51073F
:1019900025D40F2E04D822A8019300F061F8019BF2
:1019A000019302AC204600F063F8C6F11001002953
:1019B000AA6B019BB6DD22AC4F0004EBC6041146B6
:1019C000A3E722A800F048F83DE723F010032B60BE
:1019D00005F5E870019200F09DF8019A01E72846AC
:1019E00022F0040240F8D02B019300F041F8019B53
:1019F000CFE72A68CBE7D0070AD5284622F00102B4
:101A000042F0020240F8482B019300F029F8019BB4
:101A1000019322AC204600F023F8B846A96B019B45
:101A2000002F7FF46DAF0A4609E70A468DE700BF35
:101A300000F1340191E838009C46A6464CF8045D5C
:101A400090E8FF0FE54600BD90EC210B704700BF0A
:101A500080EC210B704700BF90EC200B704700BF5B
:101A600080EC200B704700BFD0EC200B704700BF0C
:101A7000C0EC200B704700BFF0EC0201F0EC02114B
:101A8000F0EC0221F0EC0231F0EC0241F0EC0251FA
:101A9000F0EC0261F0EC0271F0EC0281F0EC0291EA
:101AA000F0EC02A1F0EC02B1F0EC02C1F0EC02D1DA
:101AB000F0EC02E1F0EC02F1704700BFE0EC020153
:101AC000E0EC0211E0EC0221E0EC0231E0EC02413A
:101AD000E0EC0251E0EC0261E0EC0271E0EC02812A
:101AE000E0EC0291E0EC02A1E0EC02B1E0EC02C11A
:101AF000E0EC02D1E0EC02E1E0EC02F1704700BF63
:101B0000B0FC0181B0FC0191B0FC01A1B0FC01B1BD
:101B1000704700BFA0FC0181A0FC0191A0FC01A1C5
:101B2000A0FC01B1704700BFEC4600B52DE90050A4
:101B30002DE9FF1F4FF000032DE90C0001A9FFF76D
:101B4000DDFBDDF840E012B0704700BFEC4600B5A9
:101B50002DE900502DE9FF1F4FF000032DE90C0087
:101B600001A9FFF705FCDDF840E012B0704700BFA7
:101B7000EC4600B52DE900502DE9FF1F4FF00003A2
:101B80002DE90C0001A9FFF715FCDDF840E012B0CB
:101B9000704700BFEC4600B52DE900502DE9FF1F4E
:101BA0004FF000032DE90C0001ABFFF7D7FBDDF888
:101BB00040E012B0704700BFEC4600B52DE9005080
:101BC0002DE9FF1F4FF000032DE90C0001AAFFF7DC
:101BD00047FCDDF840E012B0704700BF027A82B9DE
:101BE000437AABB14268013B10B4437213680321DE
:101BF000141D01721A02446002605DF8044B180E55
:101C000070470368013A02721A020260180E7047A8
:101C1000B020704700B585B003AA00230092194692
:101C20000C22FFF7D7FB039805B05DF804FB00BF5B
:101C3000F0E700BF2DE9F043054685B00E464FF0B2
:101C400000083046FFF7CAFFB028044600F0B18014
:101C5000070620D500F0F003802B65D0902B36D0FE
:101C6000A02B78D0B02B47D0C02B00F08A8000F09A
:101C7000F803D02B0BD100F00702013242F400220E
:101C8000052301212846FFF793FD0028D9D009201C
:101C900005B0BDE8F0830DF10C090023194687005B
:101CA000CDF800900D222846FFF794FBFFB2039B6E
:101CB000CDF80090043760064CBFDF1BFF180023EF
:101CC00019460D2228460397FFF7A6FBB9E700F057
:101CD0000D030D2BDBD003AF002300F00F021946DC
:101CE00000972846FFF776FB0023009719460D2240
:101CF0002846FFF791FBA4E7B1285FD0B22800F097
:101D0000CC80B3287ED000F0FC03B42BBFD000F011
:101D100007020132012342F4002219462846FFF748
:101D200047FD00288DD0B2E73046FFF757FF240269
:101D30000443B4F5004FAAD024010023A2B21946EF
:101D40002846FFF735FD0028A1D114F4004F18BF35
:101D50004FF0010875E7C24302F007034FF47F62BA
:101D60001A41010702F47F624FF0000348BF42F4BA
:101D7000804219462846FFF71BFD00283FF461AF5B
:101D800085E7C62851D0C7285AD000F0F803C02BE9
:101D900069D0C82875D0C9287FF479AF3046FFF7DD
:101DA0001DFF020300F00F0002F470220130024315
:101DB00066E7B8F1000F14D0002069E73046FFF75E
:101DC0000DFF00283FF463AF10F0F0037FF45FAF26
:101DD000024619462846FFF7EBFC00283FF431AFD6
:101DE00055E703AC43460E22414600942846FFF7D0
:101DF000F1FA0094284643460F224146FFF70CFBB8
:101E0000404645E73046FFF7E9FE010300F00F00CA
:101E100001F47021421C01230A4328461946FFF7AA
:101E2000C7FC00283FF40DAF31E73046FFF7D6FE80
:101E3000010300F00F0001F47021421C0323EBE7C3
:101E40003046FFF7CBFE024600283FF420AF10F0EB
:101E5000F0037FF41CAF04212846FFF7A9FC0028FB
:101E60003FF4EFAE13E700F00F020132032342F418
:101E7000202219462846FFF79BFC00283FF4E1AEDC
:101E800005E73046FFF7AAFE00F0F00200F00F036E
:101E90001032013343EA0232F2E600230DF10C095D
:101EA0000D221946CDF800902846FFF793FA3046E8
:101EB000FFF794FE02064FF002070CD5039B00F0DB
:101EC0007F00B840034430460393FFF787FE0306C4
:101ED00007F10707F2D4039BCDF8009000F07F04D0
:101EE00003F50172BC400023144419460D22284614
:101EF0000394FFF791FAA4E610B5C36C84B05A6856
:101F000003208DF80C00DC798DF80D4012020833A7
:101F1000084601A901920293FFF78CFE04B010BDA0
:101F200008B5FFF785FE806C08BD00BF08B5FFF758
:101F30007FFEC06CC37900EB8300083008BD00BF92
:101F400008B51AF0BFFE00BF08B5FFF7F9FF00BFE4
:101F50000020704770B5D0E90064042C05460ED807
:101F6000301D1AF011FFF8B1E9680060031D324618
:101F70001846A1B91AF023FF0346184670BDA019F0
:101F800003301AF001FF78B1E31C0344644223409C
:101F9000324643F8040CE96818460029EAD01AF0E2
:101FA00003FF0346184670BD1AF08CFE10B50446B8
:101FB000FFF7CEFF38B9A06800B110BD2046FFF78B
:101FC000C9FFA06010BD1AF07DFE00BF10B4046808
:101FD0008C4202D200240160C4604468944238BF3D
:101FE00042601BB102688A4208BFC3605DF8044BBF
:101FF000704700BF704700BFF1EE103A43F08073A6
:10200000E1EE103A704700BF074AD36823F4E0635B
:102010001B041B0C000200F4E060184340F0BF609A
:1020200040F40030D060704700ED00E030B4174B52
:10203000DB68C3F30223C3F10704042C28BF042484
:102040001D1D062D18D9033B4FF0FF3505FA04F48A
:1020500021EA0401994005FA03F322EA0303194334
:1020600000280BDB0901C9B200F1604000F56140B6
:1020700080F8001330BC70470023E5E700F00F0044
:102080000901C9B2024B1954F4E700BF00ED00E0AA
:1020900014ED00E000F01F02400901239340024AC2
:1020A00042F82030704700BF00E100E000F01F025E
:1020B0004009012393402030014A42F82030704704
:1020C00000E100E00138B0F1807F0AD2064B586091
:1020D000064AF02182F823100020986007221A6037
:1020E00070470120704700BF10E000E000ED00E005
:1020F000042805D0054A136823F0040313607047D1
:10210000024A136843F004031360704710E000E0D4
:1021100010B513460222C0F8F4218361C3610A4658
:10212000002102F08DF9002010BD08B513460A46C3
:10213000002102F085F9002008BD10B513460322E6
:10214000C0F8F421C0F80831C0F80C310A4600216B
:1021500002F084F9002010BD08B513460A4600219C
:1021600002F07CF9002008BD08B50423C0F8F43162
:1021700000231A46194602F063F9002008BD08B58D
:102180000523C0F8F43100231A46194602F066F917
:10219000002008BD10B588B0002201462D20FFF7B1
:1021A00045FF2D20FFF776FF00240194144B1A6C95
:1021B00042F480721A641B6C03F480730193019BD8
:1021C00002A903A805F09CF805F07AF843000D4831
:1021D000A0FB03239B0C013B0B480C4A026040F21E
:1021E000E732C26043600461846008F047F810B1D0
:1021F000012008B010BD044807F08DFEF9E700BFCC
:102200000038024083DE1B43FC26002000200040F3
:10221000002800F0A18038B5044690F82030D3B1F2
:102220002268136823F00203136004F089FA05465C
:1022300023685A6812F0020F10D004F081FA401B94
:102240000A28F5D9636A43F400336362052384F8EE
:102250002030012038BD04F001FDE1E71A6842F0AA
:1022600001021A6004F06CFA054623685A6812F0FD
:10227000010F0DD104F064FA401B0A28F5D9636AF6
:1022800043F400336362052384F820300120E1E742
:10229000227E012A3DD01A6822F080021A60637EF5
:1022A000012B3BD02268136823F040031360A37E08
:1022B000012B39D02268136823F020031360E37EDA
:1022C000012B37D02268136843F010031360237F7B
:1022D000012B35D02268136823F008031360637F55
:1022E000012B33D02268136823F004031360A36822
:1022F000E268134322691343626913436268013A37
:1023000021681343CB6100206062012384F82030F0
:10231000A0E71A6842F080021A60C0E722681368DA
:1023200043F040031360C2E72268136843F02003C0
:102330001360C4E72268136823F010031360C6E734
:102340002268136843F008031360C8E72268136823
:1023500043F004031360CAE70120704730B490F8DB
:102360002040E4B2012C0BD090F82040E4B2022CC3
:1023700006D0436A43F480234362012030BC704797
:1023800051B90468E46814F0030F07D1436A43F4B9
:10239000001343620120F1E701295DD0056801F1D6
:1023A0001B0424012C5904F004049460002C5ED119
:1023B000056801F11B0424012C59640D14600568A3
:1023C00001F11B0424012D59C5F34005D5600568B2
:1023D00025446D6805F00F051561056825446D6895
:1023E000C5F30725956105682C446468240C546185
:1023F00004680A011444D4F8B8411C7004681444F9
:10240000D4F8B841240A5C7004681444D4F8B84184
:10241000240C9C7004681444D4F8B841240EDC7079
:1024200004681444D4F8BC411C7104681444D4F802
:10243000BC41240A5C7104681444D4F8BC41240CE7
:102440009C7104682244D2F8BC21120EDA71B1B139
:1024500001291BD0002091E70468246914F0030FC0
:102460009CD1436A43F400134362012086E7056868
:1024700001F11B0424012C59E40854609FE7026811
:10248000D36843F02003D360002077E70268136924
:1024900043F020031361002070E72DE9F84F054653
:1024A00003685C695F689E68D3F80C90D3F810806D
:1024B000D3F818A014F0010F5AD016F0010F17D05E
:1024C00001229A6016F0020F08D116F0040F30D1E5
:1024D00016F0080F07D04FF4805B0BE018F0BCF843
:1024E0004FF0000B06E018F0C6F84FF0000B01E0CB
:1024F0004FF0000B16F4807F0BD02B684FF48072E6
:102500009A6016F4007F17D116F4806F18D04BF440
:10251000005B16F4803F2DD02B684FF480329A6018
:1025200016F4003F16D116F4802F17D04BF4004B51
:1025300020E04FF4006BDDE7284618F092F8E8E75A
:1025400016F4006F02D04BF4804BE2E7284618F0F7
:1025500097F8DEE7284618F089F80BE016F4002F0C
:1025600002D04BF4803B05E0284618F08EF801E0DD
:102570004FF0000B14F0080F07D019F0100F04D023
:102580004BF4007B2B681022DA6014F0040F02D0A9
:1025900019F0080F60D114F0020F04D02B68DB682B
:1025A00013F0030F5FD114F0400F07D018F0100F95
:1025B00004D04BF4806B2B6810221A6114F0200FAA
:1025C00002D018F0080F52D114F0100F04D02B686D
:1025D0001B6913F0030F51D114F4003F02D017F020
:1025E000100F4FD114F4803F02D017F0080F50D1D4
:1025F00014F4004F67D017F0040F61D014F4807FFB
:1026000004D01AF0010F01D04BF0010B14F4007F3D
:1026100004D01AF0020F01D04BF0020B14F4806FBB
:1026200004D01AF0040F01D04BF0040B14F4006F27
:1026300046D01AF0700A43D0BAF1300F48D02FD9E3
:10264000BAF1500F47D0BAF1600F47D0BAF1400F3E
:1026500031D14BF0400B2EE02B680822DA6028467F
:1026600018F041F897E7284618F014F89BE72B6814
:1026700008221A61284618F046F8A5E7284618F0FF
:102680003AF8A9E72B6810225A60284618F043F858
:10269000A8E72B6808225A60284618F044F8A7E7F4
:1026A000BAF1100F05D0BAF1200F04D14BF0100B86
:1026B00001E04BF0080B2A68936923F070039361E3
:1026C0002B6804225A60BBF1000F0AD1BDE8F88FD5
:1026D0004BF0200BEFE74BF0800BECE74BF4807BEB
:1026E000E9E76B6A43EA0B036B62284618F023F8AC
:1026F000ECE784B010B5044603A880E80E00089B00
:10270000012B20D1A36B23F48033A363E36823F46C
:10271000840323F04003E360E36823F44013E360A1
:102720000F9B012B0AD0204600F006FD069B012BD3
:1027300014D00020BDE8104004B07047E36843F4B3
:102740008013E360EFE7E36843F04003E360204673
:1027500000F0F2FC4FF48033A363E7E7A36843F093
:102760000603A360A36843F02003A360E1E7836846
:1027700043F00103836000207047836823F0010366
:1027800083600020704708B5C36823F0C043C3606E
:10279000012909D019B9C36843F08043C3603220CE
:1027A00003F0D4FF002008BDC36843F00053C360AA
:1027B000F5E7000084B0F8B5044607A880E80E00ED
:1027C000119FBFB9A36B43F40013A36325460023F5
:1027D000C4F8003E04F50066D4F80038C4F80038A8
:1027E0000C9B012B10D1099B4BB90021204600F016
:1027F000AFF80DE0A36B43F40023A363E6E70121E8
:10280000204600F0A5F803E00321204600F0A0F8E0
:102810001021204600F076F8204600F087F80023CB
:10282000336173614FF0FF32B261F36108E04FF042
:102830009040C2F8000900220A61FF228A60013339
:10284000079999420BD905EB431202F51061D2F8B2
:1028500000090028EBDB0020C2F80009EBE70023A9
:1028600008E04FF0904CC2F800CB00220261FF223A
:102870008260013399420DD905EB431202F53060B5
:10288000D2F800CBBCF1000FEBDB4FF0000CC2F82C
:1028900000CBEAE7336923F4807333610A9B012B91
:1028A0001AD00022A2616FF0804262611BB9A36955
:1028B00043F01003A361A269104B1343A3610D9B66
:1028C0001BB1A36943F00803A361012F0ED00020C0
:1028D000BDE8F84004B07047094A3263326B42F4F5
:1028E000803242F003023263326BDAE7A36943F0CD
:1028F000804343F00403A361E9E700BF00383C8054
:1029000000018000890141F02001016100230133B1
:10291000054A934205D8026912F0200FF7D1002032
:1029200070470320704700BF400D03001023036170
:1029300000230133054A934205D8026912F0100FB3
:10294000F7D1002070470320704700BF400D0300FF
:10295000D0F800381943C0F8001800207047D0F8AC
:10296000083800F5006013F0060F10D0836803F0FC
:102970000603022B0DD0836803F00603062B0AD052
:10298000836803F00603042B07D000207047002063
:10299000704703207047032070470220704730B40F
:1029A0004B78012B22D0D0F81C380D780122AA4098
:1029B00043EA0243C0F81C380B7800EB4310D0F810
:1029C000003B13F4004F0ED1D0F8003B8A68C2F3ED
:1029D0000A02C97842EA8142134343F0805343F428
:1029E0000043C0F8003B002030BC7047D0F81C28E2
:1029F0000D78AB409BB21343C0F81C380C7800EB49
:102A00004410D0F8003913F4004FECD1D0F800395D
:102A10008A68C2F30A02C97842EA814242EA8452D1
:102A2000134343F0805343F40043C0F80039DAE71E
:102A300038B54B78012B36D00B78044600EB4313A6
:102A4000D3F8002B22F40042C3F8002B0B7800EBE4
:102A500043134FF00062C3F8002B0B7800EB4313D5
:102A60004FF08042C3F8002B002201322B4B9A42D8
:102A700052D80B7804EB431303F530639B6813F0D3
:102A8000100FF2D1D0F8043843F48063C0F8043852
:102A9000D0F81C38097801228A4023EA0243C0F8A2
:102AA0001C38002038BD0B78044600EB4313D3F8E4
:102AB000002922F40042C3F800290B7800EB4313ED
:102AC0004FF00062C3F800290B7800EB43134FF07E
:102AD0008042C3F8002900220132104B9A4219D8D3
:102AE0000B7804EB431303F510639B6813F0804FDE
:102AF000F2D10D4604461021FFF704FFD4F81C283C
:102B0000297801238B409BB222EA0303C4F81C38C6
:102B10000020C7E70320C5E70320C3E7400D0300FB
:102B200070B582B04B78012B3ED00B7800EB43138D
:102B3000D3F8104BE40CE404C3F8104B0B7800EB13
:102B40004313D3F8104B24F0FF5424F4C014C3F8FB
:102B5000104B4B69002B40F0D4800B7800EB4313F3
:102B6000D3F8104B8D68C5F312052C43C3F8104BF6
:102B70000B7800EB4313D3F8104B44F40024C3F854
:102B8000104B012A00F0DC80CB78012B00F0DF80B5
:102B90000B7800EB4310D0F8003B43F00443C0F83F
:102BA000003B002002B070BD4B696BBB0B7800EBA3
:102BB0004313D3F8104924F0FF5424F4C014C3F88D
:102BC00010490B7800EB4313D3F8104944F4002468
:102BD000C3F810490B7800EB4313D3F81049E40C09
:102BE000E404C3F81049012A54D0CB78012B57D004
:102BF0004B69002B54D0D0F834380E780124B440FF
:102C00002343C0F834384BE00B7800EB4313D3F880
:102C10001049E40CE404C3F810490B7800EB4313AB
:102C2000D3F8104924F0FF5424F4C014C3F8104919
:102C30000C7800EB4414D4F810594B698E68334477
:102C4000013BB3FBF6F34E4E06EAC3432B43C4F8F5
:102C500010390B7800EB4313D3F810494D69C5F3D5
:102C600012052C43C3F81049CB78012BBBD10B784C
:102C700000EB4313D3F8104924F0C044C3F81049C3
:102C80000B7800EB4313D3F8104944F00054C3F819
:102C90001049A8E70B7800EB43130C69C3F81449FB
:102CA000CB78012B14D00B7800EB4313D3F80049F9
:102CB00044F00444C3F80049CB78012B7FF471AF92
:102CC00014468B8A0A78C968009400F00BF968E70B
:102CD000D0F8083813F4807F09D10B7800EB431348
:102CE000D3F8004944F00054C3F80049DBE70B78FF
:102CF00000EB4313D3F8004944F08054C3F8004973
:102D0000D1E78C682344013BB3FBF4F30C7800EB70
:102D10004414D4F8105B1A4E06EAC3463543C4F88F
:102D2000105B0C7800EB4414D4F8106B8D689BB2E8
:102D300005FB03F5C5F312053543C4F8105B20E726
:102D4000CA680B7800EB4313C3F8142B1CE7D0F8C8
:102D5000083813F4807F09D10B7800EB4313D3F8C4
:102D6000002B42F00052C3F8002B11E70B7800EB68
:102D70004313D3F8002B42F08052C3F8002B07E72F
:102D80000000F81F30B44B78012B39D00B7800EBE2
:102D90004313D3F8104BE40CE404C3F8104B0B7846
:102DA00000EB4313D3F8104B24F0FF5424F4C01469
:102DB000C3F8104B4B690BB18B684B610B7800EB80
:102DC0004313D3F8104B44F40024C3F8104B0B7892
:102DD00000EB4313D3F8104B8D68C5F312052C4359
:102DE000C3F8104B012A76D00B7800EB4310D0F8D3
:102DF000003B43F00443C0F8003B002030BC704768
:102E00004B699BBB0B7800EB4313D3F8104924F0BC
:102E1000FF5424F4C014C3F810490B7800EB43139B
:102E2000D3F8104944F40024C3F810490B7800EBA0
:102E30004313D3F81049E40CE404C3F810490B78A9
:102E400000EB4313D3F8004944F00444C3F80049AD
:102E5000012A39D04B69002BCFD0D0F8343809780B
:102E600001228A401343C0F83438C6E70B7800EBE0
:102E70004313D3F81049E40CE404C3F810490B7869
:102E800000EB4313D3F8104924F0FF5424F4C0148A
:102E9000C3F810494C698B689C4200D94B610B7890
:102EA00000EB4313D3F8104944F40024C3F810494D
:102EB0000B7800EB4313D3F810494D69C5F31205A5
:102EC0002C43C3F81049BAE70B7800EB43100B69A9
:102ED000C0F8143991E7CA680B7800EB4313C3F8C4
:102EE000142B81E770B49DF80C4064B903339D083E
:102EF00007E000EB023303F5805351F8046B1E60CA
:102F00000134AC42F5D3002070BC70470332920804
:102F1000002393420CD210B400F58054246841F889
:102F2000044B01339342F7D308465DF8044B7047D6
:102F3000084670474B78012B17D00B7800EB4313F2
:102F4000D3F8002B002A05DBD3F8002B22F08042B7
:102F5000C3F8002B0B7800EB4310D0F8003B43F490
:102F60000013C0F8003B002070470B7800EB4313C0
:102F7000D3F80029002A05DBD3F8002922F080428B
:102F8000C3F800290B7800EB4310D0F8003943F464
:102F90000013C0F80039E6E74B78012B0FD00B780F
:102FA00000EB4313D3F8002B22F40012C3F8002BDC
:102FB000CB78023BDBB2012B19D9002070470B788C
:102FC00000EB4313D3F8002922F40012C3F80029C0
:102FD000CB78023BDBB2012BEFD80B7800EB431030
:102FE000D0F8003943F08053C0F80039E5E70B789A
:102FF00000EB4310D0F8003B43F08053C0F8003B97
:10300000DBE7D0F8003823F4FE63C0F80038D0F8CE
:103010000038090101F4FE610B43C0F800380020BC
:10302000704708B5D0F8043823F00203C0F804381C
:10303000032003F08BFB002008BD08B5D0F804384E
:1030400043F00203C0F80438032003F07FFB0020A4
:1030500008BD4269806910407047D0F8183800F503
:103060000060C0691840000C7047D0F8183800F5AF
:103070000060C069184080B2704700EB4111D1F880
:10308000082B00F5006040691040704710B4D0F87C
:103090001048D0F83438CB40DB01DBB2234300EBDF
:1030A000411000F51060806818405DF8044B7047CF
:1030B000406900F001007047D0F8003923F4FF6345
:1030C00023F00703C0F8003900F500639A6802F0A6
:1030D0000602042A05D05A6842F480725A60002021
:1030E0007047D0F8002942F00302C0F80029F2E747
:1030F00010B40024C0F8104BD0F8104B44F4002456
:10310000C0F8104BD0F8104B44F01804C0F8104B26
:10311000D0F8104B44F0C044C0F8104B012903D044
:1031200000205DF8044B7047C0F8142B4FF080234B
:10313000C0F8003BF4E70000002301330C4A93423F
:1031400011D80269002AF8DA036943F00103036128
:1031500000230133064A934207D8026912F0010F97
:10316000F7D100207047032070470320704700BF4D
:10317000400D030000B589B0702301930123029331
:103180000023039304930593069307930C2201A94C
:1031900007F03EF909B05DF804FB000000B58DB002
:1031A0001748184B03600023436083604FF6FF729B
:1031B000C2600361032203920493012105910693E7
:1031C00004220792089309910A930B9203A907F02E
:1031D000A0F850B900230193029301A9084800F018
:1031E000E8FA38B90DB05DF804FBE821064800F0B4
:1031F000E7FEEFE7EF21044800F0E2FEF2E700BF50
:10320000B027002000040040841C020800B58DB0E7
:103210001848194B03600023436083604FF6FF7228
:10322000C260036103220392049301210591069376
:1032300004220792089309910A930B9203A907F0BD
:1032400068F850B900230193029301A9094800F0DE
:10325000B0FA40B90DB05DF804FB40F2091107481F
:1032600000F0AEFEEEE74FF48871044800F0A8FECF
:10327000F0E700BF7427002000080040841C02080B
:1032800002680E4B9A4200D0704700B583B000210F
:10329000019103F59C335A6C42F001025A645B6C55
:1032A00003F001030193019B0A461920FEF7BEFEBD
:1032B0001920FEF7EFFE03B05DF804FB00000140AB
:1032C00010B582B00368B3F1804F04D0174A93421F
:1032D0000ED002B010BD00230093154B1A6C42F0C3
:1032E00001021A641B6C03F001030093009BF0E7DA
:1032F000002401940E4B5A6C42F002025A645B6C3B
:1033000003F002030193019B224621462C20FEF785
:103310008DFE2C20FEF7BEFE224621462D20FEF714
:1033200085FE2D20FEF7B6FED3E700BF0004014066
:103330000038024000B589B003681D4A934205D0A9
:103340001C4A93421BD009B05DF804FB0023019393
:1033500002F50D32116C41F002011164126C02F0A1
:1033600002020192019A30220392022204920593F2
:103370000693079203A9104807F0E6FBE3E7002352
:10338000029302F50C32116C41F004011164126CCD
:1033900002F004020292029AC022039202220492D4
:1033A00005930693079203A9034807F0CDFBCAE7EC
:1033B00000040040000800400004024070B586B0E0
:1033C00003682B4A934207D0B3F1804F1ED0294A9D
:1033D00093422AD006B070BD4FF460430193022699
:1033E00002960024039404940125059501A922481E
:1033F00007F0AAFB4FF4E063019302960394049450
:10340000059501A91D4807F09FFBE3E74FF44063D2
:103410000193022302930023039304930123059352
:1034200001A9154807F090FBD4E7802301930226F9
:1034300002960024039404940325059501A90F48DE
:1034400007F082FB0195029603940494059501A967
:10345000094807F079FB4FF4E07301930296039457
:103460000494059501A9064807F06EFBB2E700BF7A
:10347000000001400004014000040240000002403E
:103480000008024000B595B05048514B036000233E
:1034900043606022826042F2D072C2600361436185
:1034A00006F0ECFE00285ED114A94FF4805341F8D9
:1034B000103D464806F03CFD002859D1434806F02F
:1034C0000FFF002859D1414806F0F1FE002859D1DC
:1034D00020230E9300230F930EA93C4800F069F9B6
:1034E000002854D1702307930022089209920A926F
:1034F0000B920C920D9207A9344806F0B8FF0028F1
:103500004AD1042207A9314806F0B1FF002848D16A
:10351000082207A92D4806F0AAFF002846D114A9C1
:10352000002341F8343D0C22284806F071FF0028A2
:1035300041D14FF4006300934FF480630193002363
:1035400002931422039204934FF4005205920693BF
:1035500069461E4800F056F990BB1C48FFF72EFF45
:1035600015B05DF804FB63211A4800F029FD9BE7C4
:103570006921184800F024FDA0E76E21154800F0ED
:103580001FFDA0E77321134800F01AFDA0E77A2180
:10359000104800F015FDA5E786210E4800F010FD4B
:1035A000AFE78B210B4800F00BFDB1E790210948F4
:1035B00000F006FDB3E79621064800F001FDB8E7EC
:1035C000A221044800F0FCFCC7E700BFEC27002064
:1035D00000000140841C020800B58BB024484FF065
:1035E0008043036000234360602282604FF4805276
:1035F000C260036106F074FE28BB002308930993A0
:1036000008A91B4800F0D5F810BB702301930023D4
:103610000293022203920593082201A9144806F09E
:1036200026FFD0B941F201030293002303930C2239
:1036300001A90F4806F01BFFA0B90D48FFF7BEFE19
:103640000BB05DF804FBB5210A4800F0B9FCD4E7E3
:10365000BC21084800F0B4FCD7E7C521054800F0BC
:10366000AFFCDFE7CC21034800F0AAFCE5E700BF90
:1036700028280020841C020800B591B039483A4B34
:103680000360002343606022826042F2D072C26015
:103690000361436106F024FE00283FD120230E93EE
:1036A00000230F930EA92F4800F083F800283BD188
:1036B000702307930022089209920A920B920C92AF
:1036C0000D9207A9274806F0D2FE002832D1042225
:1036D00007A9244806F0CBFE002831D1082207A90B
:1036E000204806F0C4FE88BB4FF4006300934FF4FB
:1036F00080630193002302931422039204934FF4F6
:103700000052059206936946164800F07BF818BBF4
:103710001448FFF753FE11B05DF804FB40F223118B
:10372000124800F04DFCB9E74FF495710F4800F0D6
:1037300047FCBDE74FF49B710C4800F041FCC6E725
:1037400040F23B11094800F03BFCC7E74FF4A07181
:10375000064800F035FCC7E74FF4A671034800F0B7
:103760002FFCD5E73827002000040140841C020804
:1037700010B4042303FA01F4036A23EA0403036286
:10378000036A8A40134303625DF8044B704710B527
:10379000044604220068FFF7EBFF2268536C43F4F1
:1037A000004353642268136843F001031360002050
:1037B00010BD90F83830012B22D030B4012280F8AF
:1037C0003820022380F839300468636823F07003DE
:1037D0006360046863680D682B4363600468A368D2
:1037E00023F08003A3600468A36849680B43A360C7
:1037F00080F83920002380F83830184630BC7047F4
:103800000220704790F83830012B25D0012380F832
:103810003830CB6823F440738A68134323F4806301
:103820004A68134323F400630A68134323F4805364
:103830000A69134323F400534A69134323F4804372
:103840008A69134323F4004313430268536400233B
:1038500080F838301846704702207047704770472C
:1038600030B40468606A29B10D46A36A00EB1340C6
:1038700000230CE040EA0240A06212E003F14001A4
:1038800004EB8101496800EB11400133DBB2691E92
:103890008B42F3DB40EA024005F13F0104EB81017A
:1038A0004860002030BC70470368596200207047B0
:1038B00010B582B000240094124B1A6B42F400122F
:1038C0001A631A6B02F400120092009A01941A6BA8
:1038D00042F480021A631B6B03F480030193019B83
:1038E000224605210D20FEF7A1FB0D20FEF7D2FB9D
:1038F000224605210F20FEF799FB0F20FEF7CAFB99
:1039000002B010BD00380240F8B505460F46164615
:103910001C463BE02CB102F013FF069BC01AA042EC
:1039200034D32A68536823F0E00353606B68B3F51F
:10393000827F0BD0AB6AB3F5005F14D0012385F80A
:103940005130002385F85030032027E0AB68B3F5F1
:10395000004F02D0B3F5806FECD12A68136823F0D2
:1039600040031360E6E72A68136823F400531B043E
:103970001B0C13602A68136843F400531360DDE7DF
:103980000123B34209D0B4F1FF3FC3D12B689B6838
:1039900037EA0303F4D00023F3E70020F8BD10B5A5
:1039A00082B0044600920B4600228021FFF7ACFF54
:1039B000034610B9184602B010BD636D43F02003F2
:1039C00063650323F6E700283BD010B504460023C7
:1039D000836290F85130002B2ED0022384F85130AE
:1039E0002268136823F0400313606368A2681343DE
:1039F000E26813432269134362691343A26902F424
:103A000000721343E2691343226A1343A16A2268D6
:103A10000B431360638B03F00403616A22680B435A
:103A200053602268D36923F40063D361002060658A
:103A3000012384F8513010BD80F8503000F04AFD69
:103A4000CBE7012070472DE9F04184B01E4690F885
:103A50005030012B00F0C88004460D4690460123EB
:103A600080F8503002F06CFE074694F85130DBB21B
:103A7000012B0AD00223012284F85120002284F86D
:103A80005020184604B0BDE8F081002D00F0A4805D
:103A9000B8F1000F00F0A280032384F85130002316
:103AA00063652563A4F83480A4F83680A363A387F4
:103AB000E38763642364A368B3F5004F1BD02368D6
:103AC0001A6812F0400F03D11A6842F040021A60DF
:103AD000E368B3F5006F14D063681BB1E38E9BB24B
:103AE000012B3ED1236815F8012B1A73E38E013B9D
:103AF0009BB2E38635E02268136843F48043136089
:103B0000DDE763681BB1E38E9BB2012B0DD1236807
:103B100035F8022BDA60E38E013B9BB2E38604E0CA
:103B2000002E5DD0B6F1FF3F0FD1E38E9BB27BB389
:103B300023689A6812F0020FF2D035F8022BDA608F
:103B4000E38E013B9BB2E386EFE702F0F9FDC01B79
:103B5000B042EAD303238EE7002E43D0B6F1FF3FF5
:103B60000FD1E38E9BB29BB123689A6812F0020FCB
:103B7000F2D015F8012B1A73E38E013B9BB2E3865A
:103B8000EFE702F0DDFDC01BB042EAD3032372E78A
:103B900000973346012202212046FFF7B5FE08B107
:103BA000032368E73A4631462046FFF7F8FE03460E
:103BB00018B12023636501235DE7A26832B903923F
:103BC0002268D168039192680392039A626D002A79
:103BD0003FF451AF01234EE701234CE701234AE7AD
:103BE000032348E7032346E702234AE72DE9F0438E
:103BF00085B099460C9D90F85030012B00F0108153
:103C000004460F461646012380F8503002F098FD16
:103C1000804694F85130DBB26268012B15D0B2F5C2
:103C2000827F0AD00223012284F85120002284F8E6
:103C30005020184605B0BDE8F083A268002A40F085
:103C4000E780042B01D00223EDE7002F00F0E28093
:103C5000002E00F0E180B9F1000F00F0DF8094F851
:103C60005130DBB2012B2BD000236365A663A4F88F
:103C70003E90A4F83C902763A4F83690A4F83490C2
:103C80002364636423681A6812F0400F03D11A6832
:103C900042F040021A60E368B3F5006F14D0636825
:103CA0001BB1E38E9BB2012B07D1236817F8012BC0
:103CB0001A73E38E013B9BB2E3864FF0010961E08A
:103CC000052384F85130CFE763681BB1E38E9BB2C4
:103CD000012B07D1236837F8022BDA60E38E013B12
:103CE0009BB2E3864FF0010913E0E38F9BB26BB107
:103CF00023689A6812F0010F08D0DB6826F8023BAF
:103D0000E38F013B9BB2E3874FF00109B5F1FF3F21
:103D10001CD1E38E9BB21BB9E38F9BB2002B55D015
:103D2000B9F1000FE1D0E38E9BB2002BDDD0236808
:103D30009A6812F0020FD8D037F8022BDA60E38EBF
:103D4000013B9BB2E3864FF00009CEE702F0F8FC9E
:103D5000A0EB0800A842DCD3032364E7E38F9BB207
:103D60006BB123689A6812F0010F08D0DB683370DA
:103D7000E38F013B9BB2E38701364FF00109B5F1B8
:103D8000FF3F1BD1E38E9BB213B9E38F9BB2EBB124
:103D9000B9F1000FE2D0E38E9BB2002BDED0236896
:103DA0009A6812F0020FD9D03A781A73E38E013B69
:103DB0009BB2E38601374FF00009CFE702F0C0FC69
:103DC000A0EB0800A842DDD303232CE7CDF8008048
:103DD0002B46012202212046FFF796FD08B103235E
:103DE00021E7424629462046FFF7D9FD034618B190
:103DF00020236365012316E7A268002A7FF413AF2E
:103E000003922268D168039192680392039A0AE7A9
:103E1000022308E7012306E7012304E7012302E761
:103E2000022306E708B54FF0FF31064B186804F08F
:103E3000EDFB0028F7D1044801F0B0FB4320FEF76A
:103E400029F9F0E7742800207C28002008B502F04A
:103E5000C3FE0BF0B5FD024B186805F035FA08BD3E
:103E60006428002030B587B001AC064D0FCD0FC4DB
:103E70002B682360002101A804F02AFB024B186084
:103E800007B030BDD81B02087828002070B58AB072
:103E900000240AA840F8044D012104F0A3FB184BAC
:103EA0001860214604F0B2FB0AA840F8084D012131
:103EB00004F098FB134B18600AA840F80C4D012140
:103EC00004F090FB104B1860214604F09FFB0AA8F9
:103ED00040F8104D012104F085FB0C4B1860FFF7F2
:103EE000C1FF01AD0A4E0FCE0FC533682B602146CE
:103EF00001A804F0EDFA074B18600AB070BD00BFCE
:103F00007428002068280020702800206C280020D9
:103F1000EC1B02086428002080B500AF194B1A681A
:103F2000194B9A421BD0174B1A68184B9A4208D16A
:103F3000144B174A1A60174B83F30888164B1B68FB
:103F40009847104B1B682A2B0BD180BD00BF013353
:103F5000124A9342FAD90B4B0C4A1A60E3E700234A
:103F6000F6E7084B2A221A60BFF34F8F0C49CA6844
:103F700002F4E0620B4B1343CB60BFF34F8F00BFE3
:103F8000FDE700BF8405002075FEADDEEFBEADDEAF
:103F9000EDFEFECA000002200400FF1FFFA7610023
:103FA00000ED00E00400FA0508B50268034B9A42F0
:103FB00000D008BD02F0B8FBFBE700BF00200040C6
:103FC000FEE7000000B595B0002101912B4B1A6C63
:103FD00042F080521A641B6C03F080530193019BE2
:103FE0000291274B1A6842F480421A601B6803F45E
:103FF00080430293029B012308934FF4803309937B
:1040000002230E934FF480020F9204221092A822F2
:10401000119212930723139308A802F067FE20BBA6
:104020000F23039302230493002305934FF4A0531B
:1040300006934FF480530793052103A803F08EF8ED
:10404000B8B903F037F90F4BA3FB00308009FEF736
:1040500039F80420FEF74CF800220F214FF0FF3012
:10406000FDF7E4FF15B05DF804FBF8210648FFF703
:10407000A7FF4FF483710448FFF7A2FF0038024006
:1040800000700040D34D6210B41C02082DE918489E
:10409000294B1B68294A12681344190C1804284B31
:1040A0005A88002342EA000B43EA010C2549C1E982
:1040B00000BC002411E04FEA1C3000F00F0222493E
:1040C00050180078214908554FEA0C1141EA1B713C
:1040D0004FEA0B1083468C4601340B2CEBD91B4B5B
:1040E00000221A7302F006FBFFF76CFF04F0F8FDE4
:1040F000FFF7DEFB01F062FE01F0B2FE02F088FD88
:10410000FFF7C0F9FFF7B8FAFFF748F8FFF77EF8B6
:1041100000F0B8F901F0F8FEFFF75EFA00F0A2FB3C
:104120000B48FFF727F80B48FFF724F8FFF7AEFE20
:1041300004F0BFF9FEE700BF107AFF1F187AFF1FD7
:10414000147AFF1FD80F0020C81C0208E00F0020BF
:10415000EC270020382700200368B3F1A04F00D0DF
:10416000704710B586B04FF4C053019302230293F9
:1041700000240394032304930A23059301A90E4802
:1041800006F0E2FC0D4B5A6B42F080025A63009439
:104190005A6C42F480425A645B6C03F4804300938F
:1041A000009B224605214320FDF740FF4320FDF7F9
:1041B00071FF06B010BD00BF000002400038024091
:1041C000F8B50546D0F8EC4304F5027700F56F76B4
:1041D0003146384601F0B2FF94F8083203F060032C
:1041E000402B18D194F80932502B14D10123C4F874
:1041F000F431B4F80E32C4F8F831D4F814329B68B4
:10420000394620469847B4F80E324BB940B920469B
:10421000FDF7AAFF04E03146D5F8EC0300F0FFFB00
:10422000F8BD08B5C1EBC10293000344D3F80422E2
:10423000D0F8EC0300F020FC08BD08B5C1EBC102CA
:10424000930003445A6CD0F8EC0300F04AFC08BD1C
:1042500008B5D0F8EC0300F0CDFC08BD10B504465D
:10426000C3684BB10121D4F8EC0300F0B1FCD4F8E1
:10427000EC0300F08EFC10BD0021F4E710B50446FD
:10428000D0F8EC0300F0A7FC2268D2F8003E43F01F
:104290000103C2F8003E236A23B1034A136943F0C5
:1042A0000603136110BD00BF00ED00E008B5D0F8B3
:1042B000EC0300F099FC08BD08B5D0F8EC0300F061
:1042C000A9FC08BD08B5D0F8EC0300F0A1FC08BDBE
:1042D00008B5D0F8EC0300F09FFC08BD08B5D0F895
:1042E000EC0300F09BFC08BD03780BB10020704785
:1042F00010B503461948C0F8EC33C3F820024FF05C
:10430000A0430360062343600222C26000230361CE
:1043100043618261C36103624362C362036301F06C
:10432000B7F8A8B90D4C80212046FFF7BDFA40220E
:1043300000212046FFF794FA402201212046FFF792
:104340008FFA402203212046FFF78AFA002010BD91
:104350004FF4AC710248FFF733FEE3E77C280020FE
:10436000DC1C020808B5D0F8200201F001F918B1F0
:10437000022803D0022008BD0020FCE70120FAE754
:1043800010B51C4613462246D0F8200201F0FAFB75
:1043900018B1022803D0022010BD0020FCE7012044
:1043A000FAE708B5D0F8200201F020FC18B1022885
:1043B00003D0022008BD0020FCE70120FAE708B581
:1043C000D0F8200201F09CFC18B1022803D0022092
:1043D00008BD0020FCE70120FAE708B5D0F820026C
:1043E00001F0C1FC18B1022803D0022008BD002052
:1043F000FCE70120FAE7D0F8203211F0800F08D155
:1044000001F07F01C1EBC1018A00134493F8FA0166
:10441000704701F07F01C1EBC1018A00134493F89A
:104420003A00704708B5D0F8200201F099FB18B1A6
:10443000022803D0022008BD0020FCE70120FAE793
:1044400008B5D0F8200201F032FC18B1022803D0E0
:10445000022008BD0020FCE70120FAE708B5D0F8EB
:10446000200201F0EEFB18B1022803D0022008BDA3
:104470000020FCE70120FAE708B5D0F8200201F09F
:104480000DFC08BD08B51048104B03604FF4827353
:104490004360002383604FF40062C2600361012225
:1044A00042614FF4007282611822C261036243626A
:1044B00083620A23C362FFF786FA00B908BD4F2161
:1044C0000348FFF77DFDF9E76C2C0020003C00401D
:1044D000F81C02080268124B9A4200D0704700B5DF
:1044E00087B00021009103F5FE331A6C42F40042BC
:1044F0001A641B6C03F400430093009B4FF4E053D9
:10450000019302230293039103230493062305934B
:1045100001A9044806F018FB07B05DF804FB00BFD2
:10452000003C0040000802400B4B1B68B3F1FF3F0A
:1045300008D04FF0500383F31188BFF36F8FBFF3A0
:104540004F8FFEE74FF0500383F31188BFF36F8F57
:10455000BFF34F8FFEE700BF000000200648006851
:10456000006880F3088862B661B6BFF34F8FBFF36F
:104570006F8F00DF00BF000008ED00E0DFF80C00E7
:10458000016841F4700101607047000088ED00E0AF
:104590004FF0807340F8043C21F0010140F8081C02
:1045A000054B40F80C3C40F8202C6FF0020340F81B
:1045B000243C4438704700BF294500080000000033
:1045C000074B19680868B0E8F04F80F30988BFF31B
:1045D0006F8F4FF0000080F311887047AFF30080B9
:1045E0006C0600204FF0500383F31188BFF36F8FE8
:1045F000BFF34F8F0A4A136801331360012B00D0B9
:104600007047084B1B6813F0FF0FF9D04FF05003B1
:1046100083F31188BFF36F8FBFF34F8FFEE700BFA7
:104620000000002004ED00E0094B1B6843B94FF087
:10463000500383F31188BFF36F8FBFF34F8FFEE7F3
:10464000013B034A13600BB983F31188704700BF25
:10465000000000200000000000000000000000003A
:10466000EFF30980BFF36F8F154B1A681EF0100F20
:1046700008BF20ED108A20E9F04F10604DF8043D8E
:104680004FF0500080F31188BFF34F8FBFF36F8F4F
:1046900005F050F84FF0000080F3118808BC19684D
:1046A0000868B0E8F04F1EF0100F08BFB0EC108A99
:1046B00080F30988BFF36F8F704700BFAFF30080AE
:1046C0006C06002008B54FF0500383F31188BFF348
:1046D0006F8FBFF34F8F04F0BBFE18B1034B4FF049
:1046E00080521A60002383F3118808BD04ED00E0B6
:1046F000064B1B68064AA2FB03239B09013B054AA4
:104700001360054B07221A60704700BFF4010020B8
:10471000D34D621014E000E010E000E0314B1A6865
:10472000314B9A420DD02F4B1A68304B9A4211D11F
:104730004FF0500383F31188BFF36F8FBFF34F8F98
:10474000FEE74FF0500383F31188BFF36F8FBFF381
:104750004F8FFEE700B583B0254B1A78D2B2019295
:10476000FF221A701B78DBB28DF803309DF80330FE
:1047700003F050031F4A13701F4B07221A609DF865
:10478000033013F0800F0AD01B4A1368013B1360FB
:104790009DF803305B00DBB28DF80330EFE7164A7B
:1047A00013681B0203F4E0631360019BDBB2104A41
:1047B0001370124B1A6842F470021A601A6842F0C1
:1047C00070421A60FFF794FF0D4B00221A60FFF74A
:1047D000D5FE0C4A136843F040431360FFF7BEFE5A
:1047E000FFF7A2FE00ED00E071C20F4170C20F4161
:1047F00000E400E0A4050020A805002020ED00E072
:104800000000002034EF00E0EFF305830F2B0FD9F9
:10481000104A9B5CDBB2104A12789A4208D94FF0DA
:10482000500383F31188BFF36F8FBFF34F8FFEE701
:104830000A4B1B6803F4E063094A1268934208D9E3
:104840004FF0500383F31188BFF36F8FBFF34F8F87
:10485000FEE77047F0E300E0A40500200CED00E067
:10486000A805002008B50B480B4B03600B4B4360B9
:1048700000238360C36003610C2242618361C361D2
:1048800002F042FF00B908BD52210548FFF798FB2E
:10489000F9E700BF242D0020004C004020A10700B4
:1048A0000C1D020802683B4B9A4200D070472DE96C
:1048B000F04387B004460025009503F5F6331A6CE3
:1048C00042F400221A641B6C03F400230093009B43
:1048D000012301930226029603964FF00309CDF8B7
:1048E00010904FF00808CDF814802B4F01A93846DE
:1048F00006F02AF9019602960395CDF81090CDF8AE
:10490000148001A9384606F01FF92448244B03609F
:104910004FF0006343608560C5604FF480630361BE
:10492000456185614FF48073C3610562456200F0A3
:10493000FDF928BB194B63639C631A481A4B03604B
:104940004FF000634360402383600023C3604FF453
:104950008062026143618361C3610362436200F06C
:10496000E5F990B90F4B23639C63002205213420A5
:10497000FDF75CFB3420FDF78DFB07B0BDE8F0834D
:1049800083210A48FFF71CFBD4E795210748FFF76E
:1049900017FBE7E7004C004000000240C42C002059
:1049A00040600240642D0020706002400C1D02082F
:1049B00098B108B50346D0F8140210B10020C3F82E
:1049C000140209B1C3F810121846012380F8FC3113
:1049D0000270FFF789FC002008BD0220704719B162
:1049E000C0F81412002070470220704708B5FFF786
:1049F000B9FC002008BD08B5D0F8143233B11B68EB
:104A0000984708B9002008BD0220FCE70220FAE719
:104A100008B5D0F814325B689847002008BD38B557
:104A2000044600F50275284601F088FB0123C4F80E
:104A3000F431B4F80E32C4F8F83194F8081201F0E9
:104A40001F03012B0ED03BB1022B10D001F08001CF
:104A50002046FFF7B4FC03E02946204601F0EBFCBA
:104A6000002038BD2946204601F009FDF8E7294617
:104A7000204601F020FDF3E710B5044621BB1346A4
:104A8000D0F8F421032A01D0002010BDD0F80C1179
:104A9000D0F8102191420CD8D0F814321B6923B100
:104AA00090F8FC21032A00D198472046FDF75CFBD3
:104AB000EAE7891AC0F80C118A4228BF0A4692B266
:104AC0001946FDF749FBDFE70A46D0F814329B6927
:104AD000002BD9D090F8FC110329D5D11146984765
:104AE000D2E710B50446002946D11346D0F8F42188
:104AF000022A05D094F80032012B39D0002010BDD5
:104B0000C169026A914219D88169B1FBF2F302FBD3
:104B100013132BB98A4203D8D0F8F83199421AD32B
:104B2000D4F81432DB682BB194F8FC21032A01D1AC
:104B3000204698472046FDF722FBDBE78A1AC26130
:104B400092B21946FDF7F1FA00231A46194620469B
:104B5000FFF784FCCEE700221146FDF7E6FA0021BC
:104B6000C4F8F8110B460A462046FFF777FCC1E768
:104B7000002384F80032C1E70A46D0F814325B699A
:104B8000002BBBD090F8FC110329B7D111469847F0
:104B9000B4E738B50446402300221146FFF7F0FB86
:104BA0004025C4F810512B46002280212046FFF7F3
:104BB000E7FB2562012384F8FC31D4F818322BB1CD
:104BC000D4F814325B68217920469847002038BD1C
:104BD00001740020704790F8FC3180F8FD31042307
:104BE00080F8FC310020704790F8FD3180F8FC31EE
:104BF0000020704708B590F8FC31032B01D000204D
:104C000008BDD0F81432DB69002BF8D09847F6E7DE
:104C100000207047002070470020704708B501222F
:104C200080F8FC21D0F814225268017990470020C6
:104C300008BD30B405682C6824F480242C60046816
:104C400063608368402B05D0036899600368DA606D
:104C500030BC704703689A600368D960F8E70000C9
:104C60000268D3B2103B0B49A1FB03131B090A498D
:104C7000C95CC165032B06D822F47F7222F00302BF
:104C80008265806D704722F47F7222F00302043245
:104C90008265F6E7ABAAAAAA241D0208836A826984
:104CA00092B9012B0AD01BB1022B01D00020704712
:104CB000C36A13F0807F2CD100207047C36AB3F120
:104CC000C07F28D000207047B2F5005F05D0022BCE
:104CD00029D9032B15D000207047032B03D8DFE818
:104CE00003F01C041C0A00207047C36A13F0807F85
:104CF00015D100207047C36AB3F1C07F11D00020E6
:104D00007047C36A13F0807F01D0012070470020F4
:104D10007047012070470120704701207047012033
:104D200070470120704701207047000070B50446AD
:104D300001F006FD002C5BD00546002384F83430DA
:104D4000022384F835302268136823F001031360CE
:104D500023681A6812F0010F0AD001F0F1FC401B21
:104D60000528F5D920236365032084F8350070BD3C
:104D70001A68204810406168A2680A43E1680A4343
:104D800021690A4361690A43A1690A43E1690A4347
:104D9000216A0A430243616A04291ED01A60266808
:104DA000756925F00705636A1D43042B07D1A36AC3
:104DB0001D43E36A1BB12046FFF770FF90B9756190
:104DC0002046FFF74DFFE26D3F23934083600020B4
:104DD0006065012384F83530C9E7E16A206B01433F
:104DE0000A43DBE740236365012084F83500BEE712
:104DF0000120BCE73F8010F038B5856D90F8344055
:104E0000012C31D0012480F8344090F83540E4B2D0
:104E1000012C04D0002380F83430022038BD044631
:104E2000022084F83500002060652046FFF701FF6E
:104E3000E26D3F239340AB602268136843F0160392
:104E400013602268536943F080035361236C23B1DC
:104E50002268136843F0080313602268136843F064
:104E6000010313600020D9E70220D7E770B504469C
:104E7000866D01F065FC94F83530DBB2022B06D06C
:104E800080236365002384F83430012070BD05461B
:104E90002268136823F0160313602268536923F015
:104EA00080035361236CE3B12268136823F0080385
:104EB00013602268136823F00103136023681B68E2
:104EC00013F0010F11D001F03BFC401B0528F5D970
:104ED00020236365002384F83430032084F83500F0
:104EE000D4E7A36C002BDFD1E3E7E26D3F239340CF
:104EF000B360002084F83400012384F83530C5E71E
:104F000090F83530DBB2022B03D0802343650120BB
:104F10007047052380F835300268136823F00103D9
:104F20001360002070470000F0B583B004460023F2
:104F30000193724B1D68724BA3FB0535AD0A876D5B
:104F40003E68C26D08239340334210D003681A684C
:104F500012F0040F0BD01A6822F004021A60C26D1E
:104F600008239340BB60436D43F001034365E26D4A
:104F700001239340334209D02268526912F0800F16
:104F800004D0BB60636D43F002036365E26D0423EC
:104F90009340334209D02268126812F0020F04D005
:104FA000BB60636D43F004036365E26D10239340BF
:104FB000334224D02268126812F0080F1FD0BB6061
:104FC00023681A6812F4802F0DD01B6813F4002F89
:104FD00004D1236C9BB12046984710E0A36C73B1B9
:104FE000204698470BE01A6812F4807F03D11A68B4
:104FF00022F008021A60236C0BB120469847E26D3C
:1050000020239340334255D02268126812F0100FCB
:1050100050D0BB6094F83530DBB2052B0ED023683E
:105020001A6812F4802F33D01B6813F4002F2AD192
:10503000636C002B3ED0204698473BE02268136803
:1050400023F0160313602268536923F08003536131
:10505000236CA3B12268136823F008031360E26D88
:105060003F239340BB60002384F83430012384F84D
:105070003530236D002B3FD0204698473CE0A36C91
:10508000002BE7D1EBE7E36BA3B12046984711E093
:105090001A6812F4807F09D11A6822F010021A608F
:1050A000002384F83430012384F83530E36B0BB1EE
:1050B00020469847636DFBB1636D13F0010F17D065
:1050C000052384F835302268136823F00103136048
:1050D000019B01330193AB4204D823681B6813F092
:1050E000010FF5D1002384F83430012384F83530E2
:1050F000E36C0BB12046984703B0F0BDF4010020EB
:10510000B5814E1B124A12F0070F1ED0D11D21F09F
:105110000701C1F5803313440A460E48026000219E
:1051200041601344083B23F007030B4803605960B8
:105130001960991A51601360084B1960084B196087
:10514000084B4FF000421A6070474FF48033E4E799
:1051500000000010BC050020AC050020B8050020B0
:10516000B4050020B005002010B4134B1A68824229
:105170001BD359685C18844203D1406801445960CC
:10518000184641684418A24213D10C4C2468A2422C
:105190000DD05268114441601A681268026098424A
:1051A00000D018605DF8044B70471346DEE70460DA
:1051B000F5E70260F3E700BFBC050020AC05002066
:1051C00070B5044604F02EF93A4B1B68BBB13A4B5C
:1051D0001B681C4263D1ACB1083414F0070F11D026
:1051E00024F00704083404F007035BB14FF05003C8
:1051F00083F31188BFF36F8FBFF34F8FFEE7FFF785
:1052000081FFE4E7002C4CD02C4B1B68A3424AD30F
:105210002B4B1D6801E02B4615466A68A24202D25C
:105220002A68002AF7D1234A1268AA423DD01E6894
:1052300008362A681A606B681B1B102B10D92819B6
:1052400010F0070F08D04FF0500383F31188BFF31D
:105250006F8FBFF34F8FFEE743606C60FFF784FFF3
:105260006A6816490B689B1A0B60164909688B42DD
:1052700001D214490B60104B1B6813436B60002371
:105280002B6004F071F916F0070F10D04FF05003A7
:1052900083F31188BFF36F8FBFF34F8FFEE70026B4
:1052A000EFE70026EDE70026EBE70026E9E73046CA
:1052B00070BD00BFAC050020B0050020B405002083
:1052C000BC050020B805002080B338B50446A0F125
:1052D000080550F8042C164909680A4208D14FF015
:1052E000500383F31188BFF36F8FBFF34F8FFEE737
:1052F00050F8080C40B14FF0500383F31188BFF30E
:105300006F8FBFF34F8FFEE722EA010244F8042CAF
:1053100004F088F854F8041C064A13680B44136020
:105320002846FFF721FF04F01FF938BD704700BF82
:10533000B0050020B4050020014B1868704700BF7D
:10534000B80500200020704721280AD100230B70E7
:10535000C2224A7001228A70CB700B714B710823F4
:105360008B710020704708B5096815F0A1F800207E
:1053700008BD000010B5064C00220649204603F087
:105380001EFB0549204603F020FB002010BD00BF96
:1053900080310020042E0020C42D002040291AD87E
:1053A000F8B50E4BD3F818325B6D0BB10120F8BD88
:1053B00015460C4601460A4F2246384617F0F4FCC3
:1053C000064E22463946304603F0F9FA2946304661
:1053D00003F000FBEBE70220704700BF80310020A4
:1053E000042E00202DE9F04383B007460D46D0F887
:1053F0000080CA00521A93000344DE6C1A6DB61A7C
:105400001B6C9E4200D91E4606F103094FEA99091A
:1054100015E006F103094FEA9909EB005B1B9C00BC
:105420003C44616C3B7C0093B3B2EAB24046FDF76A
:1054300059FD636C33446364236D334423654146F3
:1054400008EB451303F510639B699BB24B4512D9DA
:10545000EA00521B93003B441A6DDB6C9A420AD25D
:105460004BB19E1AC5EBC50293003B441B6C9E4298
:10547000CFD91E46CDE73EB90123AB40D1F8345811
:1054800025EA0305C1F83458002003B0BDE8F083D5
:1054900000286BD0F0B58BB00446032380F8B933F5
:1054A000FEF75AFE2068FDF768F9254655F8107B8F
:1054B0006E460FCD0FC60FCD0FC695E8030086E8E8
:1054C0000300231D0ECB3846FDF713F90021206899
:1054D000FDF759F9002210E0D100891A8B0023440E
:1054E000012183F8391083F83820DA87002183F806
:1054F0003B1019645964D96401320E2AECD9002298
:1055000018E0D100891A8B002344002183F8F91197
:1055100083F8F821DA8783F8FB11C3F80012C3F887
:105520000412C3F80C12236802F1400003EB80035D
:10553000596001320E2AE4D9254655F8107B6E4693
:105540000FCD0FC60FCD0FC695E8030086E8030008
:10555000231D0ECB3846FDF72DF9012384F8B9330E
:105560002068FDF76AFD00200BB0F0BD01207047F8
:1055700090F8B833012B0ED010B50446012380F803
:10558000B8330068FDF74DFD2068FDF7F0F8002006
:1055900084F8B80310BD0220704700002DE9F047E1
:1055A000044605682846FDF783FD08B1BDE8F0878D
:1055B00006462068FDF74DFD0028F7D02068FDF76E
:1055C00048FD10F0020F04D02268536903F0020373
:1055D00053612068FDF73DFD10F4002F75D137466B
:1055E0002068FDF736FD10F4802F40F0D28020684F
:1055F000FDF72FFD0028C0F23E812068FDF729FD50
:1056000010F4006F0AD0D5F8083813F0010F40F0FD
:1056100041812268536903F4006353612068FDF7F8
:1056200018FD10F4805F40F039812068FDF711FD0E
:1056300010F4005F40F082812068FDF70AFD10F051
:10564000100F14D02268936923F0100393612E6A1F
:1056500006F00F08C6F34343022B00F00382062B2B
:1056600000F021822268936943F01003936120685F
:10567000FDF7EFFC10F0080F40F029822068FDF7DD
:10568000E8FC10F4801F40F02B822068FDF7E1FC5D
:1056900010F4001F40F02E822068FDF7DAFC10F0B5
:1056A000804F40F031822068FDF7D3FC10F0040FEA
:1056B0003FF47CAF23685D6815F0040F40F02D8245
:1056C000226853682B43536070E72068FDF7C5FCE0
:1056D0008046374621E0F900C91B8A002244D2F8EF
:1056E00000121B69C3F31203C91AC2F81012D2F8D0
:1056F0000012D2F804320B44C2F8043228E019F048
:10570000080F3DD119F0100F04D005EB47131022FC
:10571000C3F8082B01374FEA5808B8F1000F3FF4DF
:105720005FAF18F0010FF5D05FFA87FA5146206895
:10573000FDF7A3FC814610F0010FE0D005EB471305
:105740000122C3F8082B03F530632269012AC2D075
:1057500051462046FEF765FD2369012BCFD1002F6E
:10576000CDD1C7EBC70293002344D3F80C32002BF2
:10577000C5D104F56F7201212068FDF7B9FCBEE7C1
:105780002046FEF71DFD05EB47130822C3F8082B42
:10579000B8E72068FDF769FC804637462EE0FA003E
:1057A000D21B93002344196C5A6C0A445A6446E095
:1057B00019F0080F04D005EB47130822C3F8082995
:1057C00019F0100F04D005EB47131022C3F8082975
:1057D00019F0400F04D005EB47134022C3F8082905
:1057E00019F0020F04D005EB47130222C3F8082971
:1057F00019F0800F3AD101374FEA5808B8F1000F7D
:105800003FF4F5AE18F0010FF5D05FFA87FA514674
:105810002068FDF73BFC814610F0010FC8D0012243
:1058200002FA07F0D5F8343823EA0003C5F8343813
:1058300005EB4713C3F8082923699342AFD05146BB
:105840002046FEF7FAFC2369012BB1D1002FAFD11E
:10585000C7EBC70293002344DB6C002BA8D104F5EF
:105860006F7201212068FDF743FCA1E7394620460D
:10587000FFF7B8FDBFE7D5F8043823F00103C5F8FA
:1058800004382046FEF712FD2268536903F00043F6
:105890005361B2E62046FEF7F1FCBAE6A94605F5EB
:1058A0000068D8F8043023F00103C8F80430102150
:1058B0002068FDF727F807E009EB4613FF22C3F83D
:1058C0000829C3F8082B01366368B342F4D84FF0B7
:1058D000FF33C8F81830D8F81C3043F00113C8F86B
:1058E0001C30236BEBB1D8F8843043F00B03C8F8BD
:1058F0008430D8F8443043F00B03C8F84430D5F86E
:10590000003823F4FE63C5F8003804F56F72217C7B
:105910002068FDF7EDFB2268536903F4805353615F
:1059200083E6D8F8143043F00B03C8F81430D8F8E5
:10593000103043F00B03C8F81030E0E72068FDF7A3
:10594000BBFB2268D36823F47053D3602068FDF753
:1059500006F890B90023E3604FF400736361226896
:10596000D36843F41053D3602046FEF777FC2268D7
:10597000536903F4005353615EE60323E36040235D
:10598000636101F097FC674B0344674A934205D873
:105990002268D36843F47053D360E5E7634B034454
:1059A000634A934205D82268D36843F46053D360B6
:1059B000DAE7A0F57403A3F510535E4A934205D8C5
:1059C0002268D36843F45053D360CDE7A0F18373CA
:1059D000A3F5E743584A934205D82268D36843F4B5
:1059E0004053D360C0E7554B0344554A934205D812
:1059F0002268D36843F43053D360B5E7514B034476
:105A0000514A934205D82268D36843F42053D360A7
:105A1000AAE74E4B03444E4A934205D82268D36806
:105A200043F41053D3609FE7A0F1B773A3F5585325
:105A3000484A934205D82268D36843F40053D360A0
:105A400092E7454B0344454A934205D82268D36800
:105A500043F4E053D36087E72268D36843F4C0532C
:105A6000D36081E747F6F0731E423FF4FBAD360981
:105A70004FEAC80AAAEB08034FEA8309A144C6F318
:105A80000A02D9F804122846FDF740FAC6F30A06BE
:105A9000D9F804323344C9F80432D9F810321E441C
:105AA000C9F81062DEE5082204F56F712846FDF79B
:105AB0002DFAC6F30A164FEAC803A3EB08018A00C1
:105AC0002244D2F810321E44C2F81062CAE52046C1
:105AD000FEF7BEFB2268536903F008035361CDE56E
