:020000040800F2
:10000000708E00209D010008BF510008E54B0008DC
:10001000BD510008812C0008DB81000800000000B1
:10002000000000000000000000000000915B0008DC
:10003000354500080000000011020008415D00087D
:10004000B7010008B7010008B7010008B7010008B0
:10005000B7010008B7010008B7010008B7010008A0
:10006000B7010008B7010008B7010008B701000890
:10007000B7010008B7010008B7010008B701000880
:10008000B7010008B7010008B7010008B701000870
:10009000752D0008B7010008B7010008B701000876
:1000A000B7010008B7010008B7010008B701000850
:1000B000B7010008B7010008B7010008B701000840
:1000C000B7010008B7010008B7010008B701000830
:1000D000B7010008E9610008F9620008F963000847
:1000E000B7010008B7010008B7010008B701000810
:1000F000B7010008B7010008B7010008B701000800
:10010000B7010008B7010008B7010008B7010008EF
:10011000E95D000829600008B7010008B701000880
:10012000B7010008B7010008B7010008B7010008CF
:10013000B7010008B7010008B7010008B7010008BF
:10014000112F0008B7010008B7010008D1550008B9
:10015000B7010008B7010008B7010008B70100089F
:10016000B7010008B7010008B7010008B70100088F
:10017000B7010008B7010008B7010008B70100087F
:10018000B7010008B7010008DFF80CD000F04EFD01
:1001900000480047419C0008708E002006488047B8
:1001A00006480047FEE7FEE7FEE7FEE7FEE7FEE75C
:1001B000FEE7FEE7FEE7FEE7555D0008890100085F
:1001C000EFF3108072B6704780F310887047264CAA
:1001D0004FF6FF7525604FF0000484F30988234C27
:1001E0004FF001052570224C4FF08055256062B616
:1001F000FEE730B41E4C4FF08055256030BC704790
:1002000030B41B4C4FF08055256030BC704700BFA8
:1002100072B6EFF3098050B11EF0100F08BF20ED49
:10022000108A203880E8F00F12490968086000B58C
:10023000114880475DF804EB104811490A780270B4
:100240000C4810490A680260106890E8F00F2030EE
:100250001EF0100F08BFB0EC108A80F309884EF032
:10026000040E62B6704700BF22ED00E03F000020A0
:1002700004ED00E058000020815300083C000020FD
:100280003D00002060000020F0B500210122002385
:10029000002400258E4E76788D4FBF7846EA0726DB
:1002A000C6F30A068B4F3E80894EB678F610884F0B
:1002B000FF7846EA4716C6F30A06864F7E80844ECC
:1002C000F678B611824F3F7946EA8706804F7F79EC
:1002D00046EA8726C6F30A067E4FBE807C4E7679B4
:1002E00076107B4FBF7946EAC716C6F30A06794FE8
:1002F000FE80774EB6793611754FFF7946EA0716BC
:10030000C6F30A06734F3E81714EF679F611704FAF
:100310003F7A46EA47066E4F7F7A46EA4726C6F39B
:100320000A066C4F7E816A4E767AB610684FBF7AA5
:1003300046EA8716C6F30A06664FBE81644EB67A51
:100340007611634FFF7A46EAC706624FFE81604E20
:10035000367B5F4F7F7B46EA0726C6F30A065D4F72
:100360003E825B4E767BF610594FBF7B46EA4716BE
:10037000C6F30A06574F7E82554EB67BB611544FD0
:10038000FF7B46EA8706524F3F7C46EA8726C6F344
:100390000A06504FBE824E4E367C76104C4F7F7C04
:1003A00046EAC716C6F30A064A4FFE82484E767CD6
:1003B0003611474FBF7C46EA0716C6F30A06454F7B
:1003C0003E83434EB67CF611414FFF7C46EA47061A
:1003D0003F4F3F7D46EA4726C6F30A063D4F7E83E0
:1003E0003B4E367DB6103A4F7F7D46EA8716C6F300
:1003F0000A06384FBE83364E767D7611344FBF7D68
:1004000046EAC706334FFE83314EF67D3E84002018
:100410000AE0304E36F8106006F5FA7636B22D4F07
:1004200027F81060461CF0B21128F2DB294EB6F90D
:100430002060B6F5FA7F06D0264EB6F9206040F26D
:10044000F717BE4203D10026234F3E7002E001267B
:10045000214F3E70F0BD30B505462048007810B100
:10046000012832D110E00F2D0DD100201C49087059
:10047000084601780078401C194A10701948455404
:1004800001201649087020E0154801780078401CCA
:10049000134A10701348455410460078192813DB8E
:1004A0001048007E58B9002405E00E48005D084958
:1004B0000855601CC4B2192CF7DBFFF7E5FE0020DD
:1004C000064908700649087000BF00BF30BD000033
:1004D0008A060020A4060020C8060020CA060020C4
:1004E000CB0600207006002040EA01039B0703D0E2
:1004F00009E008C9121F08C0042AFAD203E011F863
:10050000013B00F8013B521EF9D27047D2B201E024
:1005100000F8012B491EFBD270470022F6E710B508
:1005200013460A4604461946FFF7F0FF204610BD61
:1005300070B5064608F058F8046805460A220021FE
:10054000304600F0A7FA2C6070BD2DE9FE4F8046C2
:1005500081EA0300C00F0C46009021F0004123F017
:100560000045B8EB0200A94105D24046214690461D
:100570001C460B46024623F00040104347D0270D8F
:10058000C7F30A00C3F30A510290401A01904028B1
:100590006BDAC3F3130040F4801B0098924620B13D
:1005A0000023D2EB030A63EB0B0B01985946C0F111
:1005B0004002504600F0EEF906460D4650465946B8
:1005C000019A00F006FA10EB08006141002487EA66
:1005D000115284EAE7731A4340D0009A62B3019A39
:1005E000012A4FEA075215DC001B61EB02014FF0B4
:1005F000004202EA0752CDE90042001C41F5801199
:1006000032462B4600F0C4FA03B0BDE8F08F4046F6
:100610002146F9E7001B61EB0201001C41F5801344
:1006200000185B412018A2F5001747EB030140EAD0
:10063000D570B6196D4111E06D084FEA360645EAEE
:10064000C0754FEA0752001B61EB0201001C41F527
:10065000801149084FEA30000019514132462B46BB
:1006600003B0BDE8F04F00F084BA009801224000CA
:100670000023D0EB020263EBE073009821464FEABF
:10068000E074B8EB000061EB0401E9E783F000439C
:100690005BE781F0004158E72DE9FE4F81EA030452
:1006A00004F0004421F0004100944FF0000B23F0CF
:1006B000004350EA01045ED052EA03045BD0C3F366
:1006C0000A54C1F30A552C44A4F2F3340194A0FB5C
:1006D0000254C1F3130141F48011C3F3130343F433
:1006E000801301FB024400FB034E840A970A44EA8C
:1006F000815447EA8357A4FB076802958D0A05FBDE
:1007000007854FEA932C04FB0C542705029D4FEA02
:10071000065847EA1637B5EB08056EEB070C870E4F
:10072000920E47EA811742EA8312A7FB0201B6EB59
:100730000B0164EB00042B0D43EA0C335E1844EB11
:100740001C50DA465146E7FB0201C5F313044FEA99
:100750000B3343EA14534FEA0432019C43EA060385
:10076000A4F10C040294009CCDE900B400F010FA4E
:1007700003B0BDE8F08F00200146F9E72DE9F04D08
:1007800081EA030404F0004B21F0004514464FF0C9
:10079000000A23F0004150EA050220D054EA010289
:1007A0001DD0C5F30A570246C5F31303C1F3130066
:1007B000C1F30A5640F4801543F48013A7EB0608F2
:1007C000101BD64608F2FD3873EB050002D308F182
:1007D000010801E092185B41B8F1000F03DA002034
:1007E0000146BDE8F08D00204FF480110646844696
:1007F0000EE0171B73EB050705D3121B63EB050314
:1008000006434CEA010C49084FEA300092185B415C
:1008100050EA0107EDD152EA030012D082EA040047
:1008200083EA0501084305D0101BAB4106D2012223
:10083000002306E000224FF0004302E06FF00102C7
:1008400053101AEB06004CEB085110EB0A0041EB79
:100850000B01BDE8F04D00F08CB90EB5C10F80EA78
:10086000E0700844CA07002140F233438DE80E00CF
:100870000A460B4600F08CF903B000BD0EB540F2FD
:10088000334102910021CDE900110A460B4600F0E8
:100890007FF903B000BD70B5C1F30A5201F0004505
:1008A0000024C1F3130140F2FF3341F480119A4256
:1008B00001DA002070BD40F233439A42A2F2334283
:1008C00003DC524200F075F800E090402C43F1D078
:1008D000404270BD00F0004230F000400AD0C10D2F
:1008E00001F56071C0F3160042EA0151C2084007E9
:1008F00011437047002001467047000030B5041EC8
:1009000071F1000404DB4FF00044404264EB01014C
:10091000141E73F1000405DB1C464FF000435242E5
:1009200063EB04038B4208BF824230BD30B5041E26
:1009300071F1000404DB4FF00044404264EB01011C
:10094000141E73F1000405DB1C464FF000435242B5
:1009500063EB0403994208BF904230BD01F00043AD
:1009600030B421F0004150EA010206D00A0DA2F590
:100970006072C1F31301002A02DC30BC0020704712
:10098000440F44EAC104C100E01830BC00EBC2507F
:1009900000F0B8B8202A04DB203A00FA02F1002067
:1009A00070479140C2F1200320FA03F319439040AD
:1009B0007047202A04DB203A21FA02F00021704718
:1009C00021FA02F3D040C2F12002914008431946B7
:1009D0007047202A06DBCB17203A41FA02F043EA9F
:1009E000E07306E041FA02F3D040C2F120029140E8
:1009F00008431946704700000FB4002300B589B0C2
:100A00000CA900910B996FF00042CB601E4B06932E
:100A10001E4B07930423CDE901321D4A089202467A
:100A20006B46002000F0B6F909B05DF814FB70B514
:100A300086B006464FF0FF300091CDE9010100205D
:100A400015460C4604903246694604A8FFF7D4FFC9
:100A500002460498211825B108B1084600E0204656
:100A60002860049800280DD0002A02DD00988842F2
:100A700008D0081B0094CDE901043246694604A859
:100A8000FFF7BAFF06B070BDCD0F0008EB0F0008EE
:100A9000590C00082DE9F04791460F468046044660
:100AA000002614F8015B2DB100F0D2F80068405D1B
:100AB000C007F6D12B2D02D02D2D18D0641E4A462A
:100AC0003946204600F0A2FA27B13968A14201D187
:100AD000C7F8008071054FF002040BD54042002892
:100AE00003DD07F081FD0460A007BDE8F08746F450
:100AF0008066E4E70028F8DA07F076FD04606FF01E
:100B00000040F2E70029A8BF7047401C490008BF19
:100B100020F00100704710B4B0FA80FC00FA0CF02D
:100B200050EA010404BF10BC704749B1CCF1200465
:100B300021FA04F411FA0CF118BF012121430843F2
:100B4000A3EB0C01CB1D4FEA00614FEA102042BF1E
:100B5000002010BC704700EBC35010440029A4BF14
:100B600010BC7047401C490008BF20F0010010BCB9
:100B7000704710B5141E73F1000408DA401C41F1EF
:100B8000000192185B411A4301D120F0010010BD11
:100B90002DE9F04D92469B4611B1B1FA81F202E087
:100BA000B0FA80F220329046FFF7F4FE04460F467A
:100BB00040EA0A0041EA0B0153465A46084313D063
:100BC000114653EA010019D0C8F140025046FFF720
:100BD000F0FE05460E46504659464246FFF7DAFEFD
:100BE000084305D0012004E020463946BDE8F08DD9
:100BF0000020054346EAE0762C4337430A98630514
:100C0000E40AA0EB08000022FD0A44EA47540A3037
:100C100002D500200146E9E7010510196941DDE927
:100C2000084500196941BDE8F04DA2E7064C074DA3
:100C300006E0E06840F0010394E8070098471034AC
:100C4000AC42F6D3FFF7A4FA28AF000848AF00087B
:100C50000048704724AF000810B50446FFF7F8FFBE
:100C60000068005D00F0010010BD00002DE9FF4F9D
:100C7000087883B09946FF2805D0491C2D2804D058
:100C80000024002008E000200BE00124F9E700EB3D
:100C9000800003EB4000491C0B78FF2BF7D104B117
:100CA000404200230293147819461D462D2C01D092
:100CB0002B2C04D1521C2D2C13D000240294AA46B4
:100CC0001478FF2C0FD00A25A3FB057801FB0581C2
:100CD0004FF0000C03FB0C11521CE3194AEB01010D
:100CE000EEE70124EAE7814453EA010002D019F556
:100CF000C87F06DA03980021C0E9001107B0BDE8FB
:100D0000F08F0025AE4E2F46DFF8B882184600F06F
:100D1000DAF9CDE90001B9F1000002DAC9F1000405
:100D200000E004460023A74A1AEB030B42EB045AE7
:100D300012E0E00707D02A46334638464146FFF71F
:100D4000ABFC074688462A46334610461946FFF74D
:100D5000A3FC05460E466410002CEAD1DDE9000133
:100D6000B9F1000F5A46534606DAFFF707FD3A4637
:100D70004346FFF703FD05E0FFF78EFC3A46434686
:100D8000FFF78AFC029A0AB181F00041039AC2E996
:100D90000001B3E72DE9FF4F1F468DB0D7E90146AB
:100DA0004FF0FF382E2045464FF000090B90B969EF
:100DB0006D1C0E988847396A824688470028F6D10C
:100DC000BAF1FF3F0AD024F4D064002E11DDBAF14D
:100DD0002B0F08D0BAF12D0F0BD102E0404611B015
:100DE0008DE744F48064B9696D1C0E98884782468B
:100DF000761E6946600501D52D2000E02B208DF878
:100E0000000001F1010B0DF1200809E0B9696D1C2A
:100E10000E98884782460F9844F40074761E056049
:100E2000002E02DDBAF1300FF0D00B998A453ED189
:100E300044F0800406E00F99681CA9F1010944F40C
:100E400000740860B9696D1C761E0E98884782464A
:100E50003028F0D02BE00B998A4505D1200603D429
:100E600044F08004761E18E0504607F089FD08B370
:100E70000DF11301761E44F400748B4508D2AAF1DB
:100E800030000BF8010B200607D5A9F1010003E0A3
:100E9000200602D409F101008146A00502D50F9970
:100EA000681C0860B9696D1C0E9888478246002E40
:100EB000D1DC53E0002E51DDBAF1650F02D0BAF15A
:100EC000450F4BD1A00549D5B9696D1C24F4407478
:100ED000761E0E9888478246002E0CDD2B2804D003
:100EE000BAF12D0F07D144F48074B9696D1C0E98C6
:100EF00088478246761EE00501D52D2100E02B2192
:100F000008F8011BCDF82C8021E00DF12901761E97
:100F100044F4007488450CD2AAF1300010F0FF00B0
:100F200088F8000002D10B99884509D908F1010819
:100F300006E0E00501D5244801E042F20F70814649
:100F4000B9696D1C0E98884782460F980560002E7F
:100F500004DD504607F014FD0028D6D1F9690E983B
:100F60008847FF208BF8000088F8000000200690DA
:100F700007904B466A4608A906A8FFF777FEA0052A
:100F800002D46FF001002AE714F0240F0AD0E00722
:100F900014D1DDE906123868031D3B600068C0E922
:100FA00000120BE0DDE90601FFF7D8FC0146E0077F
:100FB00004D13868021D3A600068016028460EE7D7
:100FC000000014400000F03FF1D8FFFF426842B13A
:100FD000016811F8013B23B1521EC0E90012184606
:100FE00070470121C160881E704742685AB1C368CA
:100FF000016843B983688B4205D0491E521CC0E981
:101000000012002070474FF0FF3070472DE9F05F6D
:1010100082460078002715468B460AF10104B9463E
:10102000302801D09DB113E014F8010B0127782876
:1010300003D0582801D045B10AE00DB1102D07D1D9
:101040000027102514F8010B02E0082500E00A250E
:101050000026B0460EE005FB080005FB06F101275F
:1010600001EB10461FFA80F8B6F5803F00D3B94671
:1010700014F8010B294600F018F80028EBDABBF150
:10108000000F05D00FB1641E00E05446CBF80040BD
:10109000B9F1000F06D007F0A7FA02210160C81EBF
:1010A000BDE8F09F48EA0640FAE73A2800D2303817
:1010B00020F02002412A01D3A2F13700884201D357
:1010C0004FF0FF3070470EB540F2334202920022DB
:1010D000CDE900221346FFF75BFD03B000BD70B5FC
:1010E0008C1810F8015B15F0070301D110F8013BD3
:1010F0002A1106D110F8012B03E010F8016B01F85A
:10110000016B5B1EF9D12B0705D40023521E0DD4B1
:1011100001F8013BFAE710F8013BCB1A921C03E0FF
:1011200013F8015B01F8015B521EF9D5A142D8D337
:10113000002070BD000000002DE9F04104462DEDB7
:101140000A8B002200204B1E002B07DD14F800C084
:101150006244D2B2401CC0B29842F7DB601810F86B
:10116000010C90425BD12078AA2858D16078AF2832
:1011700055D1A078002701269FEDAF8B9FEDB0BB26
:10118000012850D066284AD1082003F0AFFCAE4DAC
:1011900085ED010A6E706F8020796179000200B2DE
:1011A0000843FFF75AFB53EC182BFFF7E7FAFFF75A
:1011B000D5FBE861A079E179000200B20843FFF7AE
:1011C0004CFB53EC182BFFF7D9FAFFF7C7FB28624B
:1011D000207A617A000200B20843FFF73EFB53EC2D
:1011E000182BFFF7CBFAFFF7B9FB6862A07AE17A18
:1011F000000200B20843FFF730FB53EC1B2BFFF754
:10120000BDFAFFF7ABFB6861207B617B000200B297
:10121000084300EE100AB8EEC00A85ED060ABDECE0
:101220000A8BBDE8F081894D6E706F80207928703F
:101230006079A179000200B20843FFF70EFB53EC7E
:10124000182BFFF79BFAFFF789FB0CEE100A85EDD0
:1012500004CAE079000201B2207A0843FFF7FDFAE0
:1012600053EC182BFFF78AFAFFF778FB09EE900A88
:10127000C5ED059A607AA17A000200B20843FFF733
:10128000ECFA53EC182BFFF779FAFFF767FB09EE3E
:10129000100A85ED069AE07A217B000200B208432D
:1012A000FFF7DBFA53EC1B2BFFF768FAFFF756FB4F
:1012B0000AEE100A85ED07AA607BA17B000200B24E
:1012C0000843FFF7CAFA53EC1B2BFFF757FAFFF757
:1012D00045FB0AEE900AC5ED08AAE07B217C0002DE
:1012E00000B20843FFF7B9FA53EC1B2BFFF746FA9D
:1012F000FFF734FB0BEE100A85ED09BA607CA17C88
:10130000000200B20843FFF7A8FA53EC182BFFF7CE
:1013100035FAFFF723FB6860E07C217D000200B214
:101320000843FFF79AFA53EC182BFFF727FAFFF759
:1013300015FBA860607DA17D000200B20843FFF7A5
:101340008CFA53EC182BFFF719FAFFF707FBE8604C
:101350003F4890ED000AF1EE400AB4EEE0CAF1EE2B
:1013600010FA02D2B0EE60CA06E0B4EEC0CAF1EEE6
:1013700010FA01DDB0EE40CA85ED04CAF4EEE09A41
:10138000F1EE10FA02D2B0EE600A06E0F4EEC09A76
:10139000F1EE10FA01DCB0EE690A85ED050A2D4880
:1013A00090ED000AF1EE400AB4EEE09AF1EE10FA88
:1013B00002D2B0EE609A06E0B4EEC09AF1EE10FAF6
:1013C00001DDB0EE409A85ED069A1AEE102A224809
:1013D0002249824202D9BBEE09AA05E01AEE102A80
:1013E0008A4201DDB3EE09AA85ED07AA1AEE902A1A
:1013F000824202D9FBEE09AA05E01AEE900A884261
:1014000001DDF3EE09AAC5ED08AA1BEE100A144986
:10141000884202D99FED13BA06E01BEE100A12496A
:10142000884201DD9FED11BA85ED09BABDEC0A8B4A
:10143000BDE8F081000000000000000000005940FD
:101440000000000000002440886800200C220020DA
:10145000680200206C0200200000C8C10000C841E2
:10146000000034C3000034C30000344300003443A0
:101470002DE9F04F04462DED108B83B0002204209F
:10148000019000204B1E002B07DD14F800C06244C1
:10149000D2B2401CC0B29842F7DB601810F8010CC1
:1014A000904240F05D802078AA2840F05980607812
:1014B000AF2840F05580A078DFF8F883FE4EFC4955
:1014C00006F5805A08F5806701284ED001252128AD
:1014D00000F07681512800F058829FEDF88A61284B
:1014E00000F0B8834FF0FF39022800F0C784DFF81E
:1014F000D0A30026312800F09886DFF8C8B3322840
:1015000000F0CA86522800F03787532800F0498738
:10151000542800F05F87712800F06587932801F058
:101520004882912801F08C82922801F0E982942867
:1015300001F04683992840F01380D1F86402401CE2
:10154000C1F864028AF80050CAF80460CBF804605D
:101550008BF8005001A9204607F09EFA8AF809008E
:1015600003B0BDEC108BBDE8F08F4868401C4860AC
:1015700001A9204607F090FA88F8280701A920461B
:1015800008F00DFBC8F81C0001A9204607F084FAFA
:1015900088F8750601A9204607F07EFA88F8290721
:1015A00001A9204607F078FA88F8E00801A920464A
:1015B00007F072FA88F8E10801A9204607F06CFAF2
:1015C00088F8770601A9204607F066FA88F87606BB
:1015D000BD4901EB800090ED000A87ED520A87EDCE
:1015E000530A87ED540A01A9204607F0AAFF88EDA7
:1015F000710A01A9204607F0A4FF88ED720A01A92B
:10160000204607F09EFF88ED730A01A9204607F0E7
:1016100098FF88ED6D0A01A9204607F092FF88ED3A
:101620006E0A01A9204607F08CFF88ED6F0A01A918
:10163000204607F086FFA54D85ED2F0A01A920461B
:1016400007F07FFF85ED300A01A9204607F079FFFA
:1016500085ED310A01A9204607F073FF85ED320AB6
:1016600001A9204607F018FA88F8740601A9204657
:1016700007F012FA01287DD00120C6F8140301A951
:10168000204607F009FA012875D00120C6F84C0958
:1016900001A9204607F000FA01286DD00120C6F804
:1016A000840F01A9204607F0F7F9012865D0012031
:1016B000CAF8BC0501A9204607F043FF87ED390AA7
:1016C00001A9204607F03DFF87ED3A0A01A920460F
:1016D00007F037FF87ED3B0A01A9204607F031FFED
:1016E00087ED3C0A01A9204607F02BFF87ED350A5C
:1016F00001A9204607F025FF87ED360A01A92046FB
:1017000007F01FFF87ED370A01A9204607F019FFF0
:1017100087ED380A01A9204607F013FF6C4D85EDCF
:10172000010A01A9204607F00CFF85ED000A01A976
:10173000204607F006FF85ED0C0A01A9204607F0B8
:1017400000FF85ED0B0A01A9204607F0FAFE85EDA2
:101750000D0AD8F81C0042F2107190FBF1F1C9B2E9
:1017600088F80C106FF41C7211FB02F200EB0213EC
:10177000584A03E018E01AE01CE01EE082FB033246
:101780005311A3EBE27288F80D20F02311FB03F153
:101790006FF0180312FB03F201EB8201084488F892
:1017A0000E0007F005FFDBE64FF0FF3065E74FF076
:1017B000FF306BE74FF0FF3071E74FF0FF3077E716
:1017C000D1F88400401CC1F8840001A9204607F02C
:1017D00063F9804601A9204607F05EF9074601A992
:1017E000204607F0AEFE3C4E86ED040A01A92046D5
:1017F00007F0A7FE86ED050A01A9204607F0A1FE25
:1018000086ED060A01A9204607F09BFE86ED070A31
:1018100001A9204607F095FE86ED080A01A9204699
:1018200007F08FFE86ED090A01A9204607F089FE20
:1018300086ED0A0A01A9204607F083FE86ED0B0A11
:1018400001A9204607F07DFE86ED0C0AB8F1000FD5
:101850000DD0012F07D0022F07D0032F7FF480AEC9
:1018600086F8F4507CE635707AE6757078E601A962
:10187000204607F066FEDFED190A20EE200A86ED0D
:10188000280A01A9204607F05CFE20EE200A86ED1A
:10189000290A01A9204607F054FE20EE200A86ED11
:1018A000290A01A9204607F04CFE86ED2B0A17E015
:1018B000407C0020604A00208031002000000000B1
:1018C00058650020606600204C0400206052002013
:1018D000206500201F85EB51542D0020000080451D
:1018E00001A9204607F02DFE86ED2C0A01A920460D
:1018F00007F027FE86ED2D0A01A9204607F021FEFC
:1019000086ED2E0A01A9204607F01BFE86ED2F0A60
:1019100001A9204607F015FE86ED300A01A92046F0
:1019200007F00FFE86ED310A01A9204607F009FEF7
:1019300086ED320A01A9204607F003FE86ED330A40
:1019400001A9204607F0FDFD86ED410A01A92046C8
:1019500007F0F7FD86ED420A01A9204607F0F1FDE8
:1019600086ED430A01A9204607F0EBFD86ED4D0AFE
:1019700001A9204607F0E5FD86ED4E0A01A92046A3
:1019800007F0DFFD86ED4F0AEAE5D1F84401401C7F
:10199000C1F8440101A9204607F07EF80646022E50
:1019A00000F05081012E00F0528198F82A0700289B
:1019B0007FF4D6AD01A9204607F0C3FD87ED200ACC
:1019C00001A9204607F0BDFD87ED210A01A92046A7
:1019D00007F0B7FD87ED220A01A9204607F0B1FD07
:1019E00087ED230A01A9204607F0ABFD87ED240A05
:1019F00001A9204607F0A5FD87ED250A01A920468B
:101A000007F09FFD87ED260A01A9204607F099FD02
:101A100087ED270A01A9204607F093FD87ED280AE4
:101A200001A9204607F08DFD87ED290A01A920466E
:101A300007F087FD87ED2A0A01A9204607F081FDFE
:101A400087ED2B0A01A9204607F07BFD87ED2C0AC4
:101A500001A9204607F075FD87ED2D0A01A9204652
:101A600007F06FFD87ED2E0A01A9204607F069FDFA
:101A700087ED2F0A01A9204607F063FD87ED300AA4
:101A800001A9204607F05DFD87ED310A01A9204636
:101A900007F057FD87ED320A01A9204607F051FDF6
:101AA00087ED330A01A9204607F04BFD87ED340A84
:101AB00001A9204607F045FD87ED440A01A920460B
:101AC00007F03FFD87ED450A01A9204607F039FDE3
:101AD00087ED460A01A9204607F033FD87ED470A46
:101AE00001A9204607F02DFD87ED410A01A92046F6
:101AF00007F027FD87ED420A01A9204607F021FDE6
:101B000087ED430A01A9204607F01BFD87ED4C0A2B
:101B100001A9204607F015FD87ED4D0A01A92046D1
:101B200007F00FFD87ED4E0A01A9204607F009FDD9
:101B300087EDAB0A01A9204607F003FD87EDAC0A4B
:101B400001A9204607F0FDFC87EDAD0A01A920465A
:101B500007F0F7FC87ED4F0A01A9204607F0F1FCDA
:101B600087ED500A01A9204607F0EBFC87ED510AEA
:101B700001A9204607F0E5FC87ED350A01A92046BA
:101B800007F0DFFC87ED360A01A9204607F0D9FCF3
:101B900087ED370A01A9204607F0D3FC87ED380A04
:101BA00001A9204607F0CDFC87ED390A01A920469E
:101BB00007F0C7FC87ED3A0A01A9204607F0C1FCEF
:101BC00087ED3B0A01A9204607F0BBFC87ED3C0AE4
:101BD00001A9204607F0B5FC88ED290A01A9204695
:101BE00007F0AFFC88ED2A0A032E28D001A9204671
:101BF00007F0D5FFC8F81C0042F2107190FBF1F11C
:101C0000C9B288F80C106FF41C7211FB02F200EBE1
:101C10000213FE4A82FB03325311A3EBE27288F8EF
:101C20000D20F02311FB03F16FF0180312FB03F2F8
:101C300001EB8201084488F80E0007F0B9FC88F82F
:101C400028578DE488F82A5709F08AF888E488F83C
:101C5000285785E4D1F88401401CC1F8840108208C
:101C600002F044FFEA4880ED030AC8F82C5687EDDD
:101C70008C8A88ED118A01A9204606F00DFF88F8AC
:101C8000280601A9204606F007FF88F8290601A9C1
:101C9000204606F001FF88F8280701A9204607F032
:101CA00050FC87ED8D0A01A9204607F04AFC87ED1C
:101CB0008E0A01A9204607F044FC87ED8F0A01A98E
:101CC000204607F03EFC87ED900A01A9204607F068
:101CD00038FC87ED910A01A9204607F032FC87ED18
:101CE000920A01A9204607F02CFC87ED990A01A968
:101CF000204607F026FC87ED9A0A01A9204607F046
:101D000020FC87ED9B0A01A9204606F0C5FE0128AC
:101D10007ED00120C6F8140301A9204606F0BCFEBF
:101D2000012876D00120C6F84C0901A9204606F00A
:101D3000B3FE01286ED00120C6F8840F01A9204609
:101D400006F0AAFE012866D00120CAF8BC0501A948
:101D5000204607F0F6FB87ED200A01A9204607F090
:101D6000F0FB87ED210A01A9204607F0EAFB87ED89
:101D7000220A01A9204607F0E4FB87ED230A01A906
:101D8000204607F0DEFB87ED240A01A9204607F074
:101D9000D8FB87ED250A01A9204607F0D2FB87ED85
:101DA000260A01A9204607F0CCFB87ED270A01A9E6
:101DB000204607F0C6FB87ED280A01A9204607F058
:101DC000C0FB87ED320A01A9204607F0BAFB87ED78
:101DD000330A01A9204607F0B4FB87ED340A01A9B4
:101DE000204607F0AEFB87ED4F0A01A9204607F019
:101DF000A8FB87ED500A01A9204607F0A2FB87ED5A
:101E0000510A01A9204607F09CFB88ED290A03E04E
:101E100028E02AE02CE02EE001A9204607F091FB03
:101E200088ED2A0A01A9204607F08BFB87ED390AC5
:101E300001A9204607F085FB87ED3A0A01A9204653
:101E400007F07FFB87ED3B0A01A9204607F079FBED
:101E500087ED3C0A01A9204607F073FB87ED460A8F
:101E6000FFF77EBB4FF0FF3054E74FF0FF305AE7EB
:101E70004FF0FF3060E74FF0FF3066E78868401CA6
:101E8000886001A9204606F007FE029001A92046BD
:101E900006F002FE88F8290701A9204606F0FCFD9D
:101EA00088F8280701A9204607F079FE00EE100AFD
:101EB000DFF860B1B8EEC00A8BED0A0A01A920462E
:101EC00007F06DFE00EE100AB8EEC00A8BED0B0AAB
:101ED00001A9204607F063FE00EE100AB8EEC00A22
:101EE0008BED0C0A01A9204607F059FE00EE100AFE
:101EF0000BF5806BB8EEC00A8BED980A01A920465D
:101F000007F04DFE00EE100AB8EEC00A8BED990AFC
:101F100001A9204607F043FE00EE100AB8EEC00A01
:101F20008BED9A0A01A9204607F039FE00EE100A4F
:101F3000B8EEC00A8AED260A01A9204607F02FFE56
:101F400000EE100AB8EEC00A8AED270A01A9204661
:101F500007F025FE00EE100AB8EEC00A8AED280A46
:101F600001A9204607F01BFE00EE100A0BF5406B9E
:101F7000B8EEC00A8BEDB40A01A9204607F00FFEA7
:101F800000EE100AB8EEC00A8BEDB50A01A9204692
:101F900007F005FE00EE100AB8EEC00A8BEDB60A97
:101FA00001A9204607F0FBFD00F2DC50C6F8E8036B
:101FB00001A9204607F0F3FD00F2DC50C6F8EC035F
:101FC00001A9204607F0EBFD00F2DC50C6F8F00353
:101FD00001A9204607F0E3FD00F2DC50C6F8200A14
:101FE00001A9204607F0DBFD00F2DC50C6F8240A08
:101FF00001A9204607F0D3FD00F2DC50C6F8280AFC
:1020000001A9204607F0CBFD06E000001F85EB513B
:10201000F00400208035002000F2DC50CAF858009F
:1020200001A9204607F0BBFD00F2DC50CAF85C00B5
:1020300001A9204607F0B3FD00F2DC50CAF86000A9
:1020400001A9204607F0ABFD00F2DC50CAF890066B
:1020500001A9204607F0A3FD00F2DC50CAF894065F
:1020600001A9204607F09BFD00F2DC50CAF8980653
:1020700001A9204606F010FDC6F8680401A9204613
:1020800006F00AFDC6F86C0401A9204606F004FD1E
:10209000C6F8700401A9204606F0FEFCC6F8A00AA6
:1020A00001A9204606F0F8FCC6F8A40A01A92046BA
:1020B00006F0F2FCC6F8A80A01A9204606F0ECFCDE
:1020C000CAF8D80001A9204606F0E6FCCAF8DC00F0
:1020D00001A9204606F0E0FCCAF8E00001A920466C
:1020E00006F0DAFCCAF8100701A9204606F0D4FC75
:1020F000CAF8140701A9204606F0CEFCCAF8180752
:1021000001A9204607F01DFA87ED520A01A92046D1
:1021100007F017FA87ED530A01A9204607F011FAD4
:1021200087ED540A00220020C721514306EBC10C61
:102130000CEB8001D1F86834012B17D0C1F868543A
:1021400008EB800303F5806301F5806193ED520A8B
:1021500081ED120A401CC0B20328E9D3501CC2B260
:10216000042AE0D30298012803D020E0C1F8689443
:10217000E6E700220021C720504306EBC00303EB33
:102180008100D0F8E8C3C0F8D8C3D0F868C4C0F85C
:1021900058C400F5806090ED120A80ED0E0A481CCC
:1021A000C1B20329EBD3501CC2B2042AE2D398F87F
:1021B00029070A2803D088ED118AFFF7D1B9B7EEB5
:1021C000000A88ED110A01A9204607F0BAF988ED46
:1021D0000D0A01A9204607F0B4F988ED0E0A01A9FD
:1021E000204607F0AEF988ED0F0A00220021C72033
:1021F000504306EBC00303EB8100D0F8E8C3C0F8FE
:10220000D8C3D0F868C4C0F858C400F5806090ED19
:10221000120A80ED0E0A481CC1B20329EBD3501CF0
:10222000C2B2042AE2D3FFF79BB9D1F8C400401C24
:10223000C1F8C4008AF80050CAF804608AF808504F
:1022400001A9204606F028FC8AF8090001A92046C9
:1022500007F077F98AED030A01A9204607F071F922
:102260008AED040A01A9204607F06BF98AED050AF8
:1022700001A9204607F065F98AED060A01A9204662
:1022800007F05FF98AED070A01A9204607F059F91E
:102290008AED080AFFF764B9D1F8C800401CC1F8FC
:1022A000C8008AF80050CAF8046002208AF80800C2
:1022B00001A9204606F0F0FB8AF8090001A9204692
:1022C00007F03FF98AED0A0A01A9204607F039F91B
:1022D0008AED0B0A01A9204607F033F98AED0C0AB2
:1022E00001A9204607F02DF98AED0D0A01A9204623
:1022F00007F027F98AED0E0A01A9204606F0CCFB6B
:102300008AF84A0001A9204606F0C6FB8AF84B006D
:1023100001A9204607F043FCCAF8400001A9204665
:1023200007F03DFCCAF83C0001A9204606F0B4FBCA
:102330008AF8440001A9204606F0AEFB8AF8450061
:1023400001A9204606F0A8FB8AF8470001A920460B
:1023500006F0A2FB8AF8460001A9204606F09CFB85
:102360008AF8480001A9204606F096FB8AF8490041
:102370008BF80860FFF7F4B8D1F84801401CC1F8A9
:10238000480188ED188A87EDEF8A88F8636488F839
:10239000646488ED118A88F829678AF82460FFF759
:1023A000DFB8D1F84C01401CC1F84C0188ED188A07
:1023B00087EDEF8A88F8636488F8646488ED118A91
:1023C00088F829678AF824600121042002F01AFCA9
:1023D000FFF7C6B8D1F85001401CC1F8500188F889
:1023E0002857FFF7BDB8FC480560FC480560FC486D
:1023F00080ED008AA07851F82020521C41F820205E
:1024000001A9204606F048FB0B2801D1F5480560DC
:1024100001A9204606F040FB9FEDF39B9FEDF4BB26
:102420009FEDF5EB9FEDF6DB9FEDF7AB9FEDF88BA6
:102430009FEDF9CBFA4F00287ED087F841617E707E
:1024400001A9204606F028FB87F84301F87001A98E
:10245000204606F021FBF349086001A9204606F05A
:102460001BFBF149086001A9204606F015FB87F81F
:102470004501787101A9204607F063F887ED480A05
:1024800001A9204607F05DF887ED4A0A01A9204618
:1024900007F057F887ED4D0A01A9204607F051F8DB
:1024A00087ED4C0A01A9204607F04BF887ED4E0A4C
:1024B000D7F82801FEF70EFA53EC1A2BFEF745F871
:1024C00041EC100B51EC180B53EC102BFEF756F9A6
:1024D000FEF744FAC7F82401D7F83401FEF7FAF9F9
:1024E00053EC1B2BFEF731F841EC1F0BD7F83001F2
:1024F000FEF7F0F953EC1F2BFEF740F953EC192BC4
:10250000FEF7FCF930D3D7F83401FEF7E3F953ECCA
:102510001B2BFEF71AF841EC190BD7F83001FEF728
:10252000D9F953EC192BFEF729F9B0EE4E9AF0EEDB
:102530006E9A53EC192B00E036E0FEF7F7F913D34F
:10254000D7F83401FEF7C6F953EC1B2BFDF7FDFF5E
:1025500041EC190BD7F83001FEF7BCF953EC192BFD
:10256000FEF70CF941EC190B51EC190BFEF7F6F9DB
:10257000C7F82C01D7F83801FEF7ACF953EC1A2B49
:10258000FDF7E3FF41EC100B51EC1C0B53EC102B4F
:10259000FEF7F4F853EC1D2BFEF7B0F90CD2B0EEB9
:1025A0004D8AF0EE6D8A2EE0C7F8CC01C7F88C009A
:1025B00087F841517D7043E7D7F83801FEF78AF973
:1025C00053EC1A2BFDF7C1FF41EC100B51EC1C0B27
:1025D00053EC102BFEF7D2F853EC182BFEF7A6F9AC
:1025E00011D3D7F83801FEF775F953EC1A2BFDF724
:1025F000ACFF41EC100B51EC1C0B53EC102BFEF715
:10260000BDF841EC180B51EC180BFEF7A7F9C7F811
:102610003C0107F58870D7F82CE190E80F10D7F847
:1026200028B1D7F824A1C7F86CE207F51477A7E81A
:102630000F10A7F5197707F59870C7F868B2C7F8B3
:1026400064A20FC807F51C770FC7A7F52077754858
:102650000068E8B301A9204606F01EFA87F85C027C
:1026600097F84501A8B301A9204606F06AFF01A921
:10267000204606F066FF87ED780A01A9204606F09D
:1026800060FF87ED6C0A01A9204606F005FA0228D2
:1026900065D0C7F8445201A9204606F0FDF902288A
:1026A00060D0C7F8405201A9204606F0F5F901288C
:1026B0005BD0C7F8485201A9204606F042FF87EDDB
:1026C000750A01A9204606F03CFF87ED670A01E084
:1026D0005EE03DE001A9204606F0DEF987F81C0126
:1026E0007879A0B301A9204606F02BFF01A9204666
:1026F00006F027FF87ED280A01A9204606F021FFF2
:1027000087ED1C0A01A9204606F0C6F9022836D03A
:10271000C7F8045101A9204606F0BEF9022831D0BD
:10272000C7F8005101A9204606F0B6F901282CD0BF
:10273000C7F8085101A9204606F003FF87ED250AD6
:1027400001A9204606F0FDFE87ED170AC8E00FE05C
:1027500001A9204606F0F5FE87ED5C0A87E7C7F879
:10276000449298E7C7F840929DE7C7F84862A2E70D
:1027700001A9204606F0E5FE87ED0C0AB6E7C7F88A
:102780000491C7E7C7F80091CCE7C7F80861D1E723
:1027900001A9204606F080F987F81C017879D0B1AC
:1027A00001A9204606F0CDFE01A9204606F0C9FE8B
:1027B00087ED280A01A9204606F0C3FE87ED1C0A12
:1027C00001A9204606F068F902287DD0C7F8045117
:1027D00001A920462AE0BAE0000200201C020020E5
:1027E000200200201802002000000000000000006D
:1027F0008DEDB5A0F7C6B03E0000000000408F4050
:10280000178016801680763F48AFBC9AF2D77A3E82
:10281000000000000000F03F000000000080764053
:10282000E0270020FC010020F801002006F034F928
:1028300002287DD0C7F8005101A9204606F02CF9E6
:10284000012876D0C7F8085101A9204606F079FE84
:1028500087ED250A01A9204606F073FE87ED170AC9
:1028600001A9204606F018F987F85C0297F845019F
:1028700058B301A9204606F064FE01A9204606F0DF
:1028800060FE87ED780A01A9204606F05AFE87ED22
:102890006C0A01A9204606F0FFF802286ED0C7F89E
:1028A000445201A9204606F0F7F8022869D0C7F87B
:1028B000405201A9204606F0EFF8012864D0C7F87D
:1028C000485201A9204601E048E050E006F039FEF8
:1028D00087ED750A01A9204606F033FE87ED670AE9
:1028E00001A9204607F05BF9C8F81C0042F21071FC
:1028F00090FBF1F1C9B288F80C106FF41C7211FB57
:1029000002F200EB0213DD4A82FB03325311A3EB08
:10291000E27288F80D20F02311FB03F16FF0180329
:1029200012FB03F201EB8201084488F80E0001E07B
:1029300017E019E006F03CFE97ED780AB5EEC00A04
:10294000F1EE10FA23D00220C7F8CC0121E001A952
:10295000204606F0F6FD87ED0C0A25E7C7F804913E
:1029600036E7C7F8009167E7C7F808616CE701A987
:10297000204606F0E6FD87ED5C0A7EE7C7F8449244
:102980008FE7C7F8409294E7C7F8486299E7C7F81D
:10299000CC5197ED280AB5EEC00AF1EE10FA04D03A
:1029A0000220C7F88C00FEF7DBBDC7F88C50FEF79D
:1029B000D7BDD1F84C02401CC1F84C028AF8005037
:1029C000CAF80460CBF804608BF800508BF808500C
:1029D00001A9204606F060F88BF8090001A92046FD
:1029E00006F0AFFD8BED030A01A9204606F0A9FD14
:1029F0008BED040A01A9204606F0A3FD8BED060A23
:102A000001A9204606F09DFD8BED050A01A920468F
:102A100006F097FD8BED070A01A9204606F091FD0F
:102A20008BED080A01A9204606F08BFD8BED090A03
:102A300001A9204606F085FD8BED0A0AFEF790BD40
:102A4000D1F84402401CC1F844028AF80050CAF888
:102A50000460CBF804608BF8005002208BF808006B
:102A600001A9204606F018F88BF80A0001A92046B3
:102A700007F095F8CBF82C0001A9204607F08FF855
:102A8000CBF8300001A9204607F089F8CBF83400D4
:102A900001A9204607F083F8CBF8380001A92046A9
:102AA00007F07DF8CBF83C0001A9204607F077F845
:102AB000CBF8400001A9204607F071F8CBF844009C
:102AC00001A9204607F06BF8CBF8480001A9204681
:102AD00007F065F8CBF84C0001A9204607F05FF835
:102AE000CBF8500001A9204607F059F8CBF8540064
:102AF00001A9204607F053F8CBF85800FEF730BD87
:102B0000D1F84802401CC1F848028AF80050CAF8BF
:102B10000460CBF804608BF8005003208BF80800A9
:102B200001A9204605F0B8FF8BF80A0001A920464C
:102B300006F007FD8BED1D0A01A9204606F001FDF8
:102B40008BED1E0A01A9204606F0FBFC8BED1F0A47
:102B500001A9204606F0F5FC8BED170A01A92046D5
:102B600006F0EFFC8BED180A01A9204606F0E9FCFF
:102B70008BED190A01A9204606F0E3FC8BED200A33
:102B800001A9204606F0DDFC8BED210A01A92046B3
:102B900006F0D7FC8BED220A01A9204606F0D1FCF5
:102BA0008BED1A0A01A9204606F0CBFC8BED1B0A1F
:102BB00001A9204606F0C5FC8BED1C0AFEF7D0BC2F
:102BC000D1F85002401CC1F850028AF80050CAF8EF
:102BD0000460CBF804608BF8005001A9204605F092
:102BE0005BFF8BF80B0001A9204606F0AAFC8BEDD9
:102BF000230A01A9204606F0A4FC8BED240A01A9B2
:102C0000204606F09EFC8BED250A01A9204606F021
:102C100098FC8BED270A01A9204606F092FC8BED6B
:102C2000280A01A9204606F08CFC8BED290A01A98F
:102C3000204606F086FC8BED2B0A01A9204606F003
:102C400080FC8BED2C0A01A9204606F07AFC8BED66
:102C50002D0A01A9204606F074FC8BED2F0A01A96C
:102C6000204606F06EFC8BED300A01A9204606F0E6
:102C700068FC8BED310AFEF773BC00001F85EB5139
:102C8000FEE700002DE9F04F8BB00746149E884602
:102C900091469A460121022002F0A0FC012148063B
:102CA00002F0B8FC4FF44070089002208DF8240028
:102CB00000248DF8264003208DF8250001258DF88D
:102CC0002750DFF8A8B008A9584601F0F9FC0922FE
:102CD0000821584601F03FFD09221146584601F0EF
:102CE0003AFD8DF81A408DF81B408DF81C408DF888
:102CF0001D508DF81E408DF81F408DF816608DF820
:102D000017708DF818908DF81980ADF814A0184E32
:102D100005A9304600F023FB8DF80E408DF80F40DA
:102D20008DF81050ADF80440ADF80640ADF80840FD
:102D3000ADF80A40ADF80C408DF8115001A800F034
:102D400087FA01220221304600F0FEFA14208DF8A5
:102D500000008DF801508DF802508DF80350684640
:102D600002F02EFA0BB00020BDE8F08F0004024004
:102D70000064004000B585B06A4600211C4800F0A0
:102D800077FB9DF8080000282FD19DF80A0008283D
:102D90002BD10098A0F50070042826D89DF81000CB
:102DA0009DF80F1040EA0120124908809DF80E108E
:102DB0009DF80D2041EA02210F4A11809DF80C2058
:102DC0009DF80B3042EA03220C4B1A801B1F19811D
:102DD0005A81988100980A49A0F2012000EB8000F6
:102DE00001EB8010694606F09FFC05B000BD0000B5
:102DF00000640040EA010020E6010020E801002014
:102E0000E02700202DE9F04706462DED028B8AB021
:102E10000F469046B0EE408A99460121022002F00A
:102E2000DDFB0121480602F0F5FB0121880602F0D6
:102E3000F1FB6020089002208DF8240000248DF81A
:102E4000264003208DF8250001258DF82750DFF856
:102E5000B8A008A9504601F033FC092205215046CC
:102E600001F079FC09220621504601F074FC8DF82E
:102E70001A408DF81B408DF81C408DF81D508DF8C0
:102E80001E408DF81F408DF816908DF817608DF854
:102E900018808DF81970BCEEC80A10EE100AADF853
:102EA00014001A4E05A9304600F059FA0E208DF88C
:102EB0000E008DF80F408DF81050ADF80440ADF8BD
:102EC0000640ADF80840ADF80A40ADF80C408DF86A
:102ED000115001A800F0BCF901220221304600F097
:102EE00033FA40208DF800008DF801508DF8025023
:102EF0008DF80350684602F063F90AB00020BDEC7B
:102F0000028BBDE8F087000000040240006800402A
:102F100070B52DED028B86B0002401AA0021C248B5
:102F200000F0A6FA9FEDC10AC14E86ED090A002302
:102F300006F12C052B55641C082CFBDB00209DF8AA
:102F40000E10002909DD01AA02EB000C9CF80BC051
:102F500005F800C0401C8142F6DC01983062082967
:102F60007ED1B0F5807F7BD37169012201F5807C31
:102F70009FEDB18BB24C604504D1D6F81CC0BCF1BA
:102F8000000F28D001F5007C604540F0E5803270EC
:102F90003361B06900287AD028786978000200B2DD
:102FA0000843FDF75AFC53EC182BFDF7E7FBFDF740
:102FB000D5FCC4F8E001A878E978000200B2084323
:102FC000FDF74BFC53EC182BFDF7D8FBFDF7C6FCC7
:102FD000C4F8A000A1E032703361B069F0B1287884
:102FE0006978000200B20843FDF737FC53EC182B58
:102FF000FDF7C4FBFDF7B2FCC4F8E401A878E9785A
:10300000000200B20843FDF728FC53EC182BFDF733
:10301000B5FBFDF7A3FCC4F8A4001DE0287869788F
:10302000000200B20843FDF718FC53EC182BFDF723
:10303000A5FBFDF793FCC4F8A400A878E97800028A
:1030400000B20843FDF709FC53EC182BFDF796FB83
:10305000FDF784FCC4F8E4012879192802D900E0BE
:1030600039E0192000EE100AB8EE400A84ED6C0A2F
:1030700084ED1C0A687984F840012070A87984F8EE
:103080004301E070E87984F84401207100E026E013
:10309000D4ED290A94ED481A80EE810AD4ED490A4C
:1030A00020EE200AD4ED4B0A20EE200A84ED280AF7
:1030B000D4ED790A94ED981A80EE810AD4ED990A3C
:1030C00020EE200AD4ED9B0A20EE200A84ED780A37
:1030D000B06A401CB06206B0BDEC028B70BD2878AF
:1030E0006978000200B20843FDF7B7FB53EC182BD8
:1030F000FDF744FBFDF732FCC4F8A000A878E9789E
:10310000000200B20843FDF7A8FB53EC182BFDF7B3
:1031100035FBFDF723FCC4F8E0012879192800D914
:10312000192000EE100AB8EE400A84ED6C0A84ED16
:103130001C0A687984F840012070A87984F843015A
:10314000E070E87984F844012071B06A401CB062F4
:1031500006B0BDEC028B70BD01F5A0618842F7D1CD
:10316000327033619FED388BB069F0B1287869789F
:10317000000200B20843FDF770FB53EC182BFDF77B
:10318000FDFAFDF7EBFBC4F8D401A878E97800025A
:1031900000B20843FDF761FB53EC182BFDF7EEFA84
:1031A000FDF7DCFBC4F894001DE028786978000284
:1031B00000B20843FDF751FB53EC182BFDF7DEFA84
:1031C000FDF7CCFBC4F89400A878E978000200B2BF
:1031D0000843FDF742FB53EC182BFDF7CFFAFDF740
:1031E000BDFBC4F8D4012879192800D9192000EEB4
:1031F000100AB8EE400A84ED6C0A84ED1C0A687966
:1032000084F840012070A87984F84301E070E879DF
:1032100084F844012071B06A401CB06206B0BDEC75
:10322000028B70BD0000000000680040000000003C
:10323000E4010020000000000000000000005940F0
:10324000E0270020000000000000000000002440F3
:1032500030B4827A01219140364B1A6842F0010263
:103260001A60DFF8D4C0DCF800208A43CCF80020D4
:10327000047B324A002C1AD114688C4314604488B1
:10328000C58844EA0544857AED0005F1804505F5D9
:10329000C045C5F840460588848845EA0445847AD7
:1032A000E40004F1804404F5C044C4F84456047BAF
:1032B000012C1AD114680C4314604288048842EA35
:1032C0000442847AE40004F1804404F5C044C4F864
:1032D0004026C288848842EA0442847AE40004F1E9
:1032E000804404F5C044C4F84426C47A144A34B176
:1032F00014680C4314600489124A24B106E014686F
:103300008C431460F7E714688C4314600489012C23
:1033100002D114680C431460407B012804D1DCF80E
:1033200000000843CCF80000186820F00100186085
:1033300030BC7047006600401C6600400C660040D0
:103340000466004014660040002A03D0426911431D
:1033500041617047426922EA0101416170470022E0
:10336000036823F002030360036843F00103036072
:103370004FF6FF7300E0521CD0F804C01CF0010FA0
:1033800001D19A42F7D1426812F0010F41D08A79F7
:10339000012A40D0026822F080020260CA79012A24
:1033A0003ED0026822F0400202600A7A012A3CD034
:1033B000026822F0200202604A7A012A3AD00268AA
:1033C00022F0100202608A7A012A38D0026822F0C4
:1033D00008020260CA7A012A36D0026822F004028A
:1033E00002608A7891F803C0920742EA0C6291F871
:1033F00004C042EA0C4291F805C0098842EA0C5226
:10340000491E1143C161016821F0010101600021E1
:1034100020E000207047026842F080020260BDE7B1
:10342000026842F040020260BFE7026842F02002F8
:103430000260C1E7026842F010020260C3E702685E
:1034400042F008020260C5E7026842F0040202602E
:10345000C7E7491C426812F0010F01D09942F8D128
:10346000406810F0010F01D0002070470120704724
:1034700000EB0113D3F8B0C10CF0040C82F808C0C3
:10348000BCF1000F47D0D3F8B0C14FEADC0CC2F852
:1034900004C0D3F8B0C10CF0020C82F809C0D3F814
:1034A000B4C10CF00F0C82F80AC0D3F8B4C14FEAD3
:1034B0001C2C82F813C0D3F8B8C182F80BC0D3F823
:1034C000B8C14FEA1C2C82F80CC0D3F8B8C14FEA3F
:1034D0001C4C82F80DC0D3F8B8C14FEA1C6C82F8BE
:1034E0000EC0D3F8BCC182F80FC0D3F8BCC14FEAFC
:1034F0001C2C82F810C0D3F8BCC14FEA1C4C82F8D7
:1035000011C0D3F8BC311B0E937459B1016941F05D
:10351000200101617047D3F8B0C14FEA5C5CC2F88A
:1035200000C0B6E7C16841F02001C160704710B427
:1035300002460020936813F0806F0CD1906810F061
:10354000006F01D0012006E0906810F0805F01D08C
:10355000022000E0042004284FD002EB0012D2F831
:10356000803103F00103C2F880310B7AE3B3D2F863
:1035700080C14C684CEA030391F809C04CEAC40CC2
:1035800043EA0C03C2F880318B7A03F00F038B728D
:10359000D2F8843123F00F03C2F88431D2F8843199
:1035A00091F80AC043EA0C03C2F88431CB7A91F84F
:1035B0000EC00C7B43EA0C6391F80DC04FEA0C4C33
:1035C0004CEA042C43EA0C03C2F88831CB7B91F817
:1035D00012C043EA0C6391F811C0097C4FEA0C4C0D
:1035E0004CEA0121194300E009E0C2F88C11D2F83D
:1035F000801141F00101C2F8801110BC7047D2F86F
:10360000803191F809C043EA0C03B1F800C043EAE5
:103610004C53C2F88031B7E70022002904D00129B9
:1036200007D002290ED109E080681B4900EA010297
:1036300008E08068194900EA010203E0806818493F
:1036400000EA01021749501A8A421AD007DCA2B1D7
:103650006FF08060101812D002280BD115E0B0F581
:10366000007F14D0A0F10060B0F57F400BD0B0F522
:10367000003F0ED00020C0B270470220FBE70020C0
:10368000F9E70020F7E70020F5E70120F3E7012044
:10369000F1E70120EFE70000030000040003000849
:1036A000000003100001000810B50B4603F07F0274
:1036B00002EB820113F0800F00EBC10102D001F593
:1036C0008E7101E001F55D710A70C3F3C0124A709A
:1036D00004F004FB002010BD10B50A4612F0800F64
:1036E00002F07F0306D003EB830100EBC10101F57B
:1036F0008E7105E002EB820100EBC10101F55D7105
:103700004FF0000C81F802C00B70C2F3C0124A7077
:1037100004F0C3FA002010BD70B50C4604F07F0C15
:103720000CEB8C0114F0800F00EBC10102D001F50D
:103730008E7101E001F55D7181F800C0C4F3C01421
:103740004C708A60CB700CB1A1F806C0022B01D17D
:1037500000220A7104F06CFA002070BD10B501F06F
:103760007F0C0CEB8C0100EBC10101F55D71CA60AF
:103770004B6100238B614B7081F800C0C378012B33
:1037800000D10A610A781AB104F0EBFA002010BDEA
:1037900004F09BF9FAE7002261F30A12006901685C
:1037A00011430160704710B50A4612F0800F02F015
:1037B0007F0306D003EB830100EBC10101F58E719D
:1037C00005E002EB820100EBC10101F55D714FF0F4
:1037D000010C81F802C00B70C2F3C0124A7004F0F1
:1037E0009DFA002010BD10B501F07F0C0CEB8C0190
:1037F00000EBC10101F58E7101244C7081F800C00D
:10380000CA600A6100228A614B61BCF1000F03D0DB
:1038100004F0A7FA002010BD04F057F9FAE738B514
:103820000446204604F02AF9E068C16821F4705586
:103830000095C560204604F0D9FB0146002003290D
:1038400011D00120A0704020A08025F4705000F518
:10385000A0500090E1680098C8604FF40050E16803
:103860004861012038BDA0704FF40070A08025F49D
:10387000705000F510500090ECE700002DE9F84F73
:103880000546002400200090284604F0E1FB06468F
:10389000300068D001274FF008084FF010094FF0B2
:1038A000400A4FF0020B16F0010F58D0E1B2284643
:1038B00000F038FA009010F0010F1CD007FA04F164
:1038C0002869426B22EA01014163009705EB8400FD
:1038D000806987602548E1B20068426828469047C1
:1038E000E878012807D134B995F81101042802D1EC
:1038F000284604F07FF9009810F0080F06D0CDF8A4
:10390000008005EB84008069C0F80880009810F002
:10391000100F06D0CDF8009005EB84008069C0F848
:103920000890009810F0400F06D0CDF800A005EBED
:1039300084008069C0F808A0009810F0020F06D03B
:10394000CDF800B005EB84008069C0F808B000989D
:1039500010F0800F03D02146284600F0F1F9641CD6
:103960007608002E9FD10120BDE8F88F5405002075
:103970002DE9F04782B0054600240020019028463A
:1039800004F06CFB0646300057D02E4F4FF0010874
:103990004FF002094FF0080A16F0010F49D0E1B2CA
:1039A000284604F061FB019010F0010F27D0CDF8FC
:1039B000048005EB8400416DC1F80880E978012995
:1039C0000DD1406D0069009004EB840105EBC1014D
:1039D000C0F31200D1F87C23101AC1F88C033868A8
:1039E000E1B2026828469047E878012807D134B947
:1039F00095F81101052802D1284604F0FBF801983A
:103A000010F0020F06D0CDF8049005EB8400406D55
:103A1000C0F80890019810F0080F0AD03868816843
:103A200028468847CDF804A005EB8400406DC0F817
:103A300008A0641C7608002EAED102B00120BDE8BB
:103A4000F08700005405002038B50446A07A00280D
:103A500008D0D4F80C01016821F0020121F0010125
:103A6000009101602069416821F001014160054831
:103A700000688169204688474FF00040E16848614E
:103A8000012038BD5405002070B582B005461020D5
:103A90000190E868816921F010018161E868006A9D
:103AA000009000F00F0101EB810105EBC10101F570
:103AB0005D74C0F34341072923D2DFE801F02222DD
:103AC00004222222160047F6F071084219D0C0F3F2
:103AD0000A1632462846E16804F0CEFAE06830441F
:103AE000E060A0693044A0610BE0082205F2CC51EF
:103AF000284604F0C1FA0099A069C1F30A110844EC
:103B0000A061E868816941F01001816102B0012083
:103B100070BD000010B50446044920460968C96814
:103B200088470821E0684161012010BD540500204C
:103B300010B584B004460020009094F81201009063
:103B400017480068416920468847206980680190CD
:103B50004FF400610391E2685161A17AE9B110F07C
:103B6000010F1AD094F81501012816D19DF8000014
:103B7000032812D1D4F80C01016841F00101016061
:103B800003200290D4F80C01016841F003010160A8
:103B90000448016841F00601016004B0012010BD35
:103BA0005405002010ED00E070B586B004460025F5
:103BB00005950495039502950095012601962069C7
:103BC000416821F0010141600021204604F0E8F93C
:103BD0000020617800290AD9FF2204EB80018B695B
:103BE0009A60496D8A60401C61788142F5D82169EC
:103BF0004FF0FF308861ADF81460ADF816602169B0
:103C00000598C86145F0080040F0010040F002004E
:103C10002169486145F0010040F0080040F00200D1
:103C2000216908612069016821F4FE610160204674
:103C300003F0E0FF4FF48050E168486103480068FA
:103C400001692046884706B0012070BD5405002058
:103C500010B50446204604F021FA4FF0010C84F818
:103C600012C1002084F81401002261784023002949
:103C700011D902EB820104EBC10101F58E7181F8CB
:103C800001C00A70CA80C8708B60C8604861521C4D
:103C900061789142EDD800226178002910D902EBB9
:103CA000820104EBC10101F55D7148700A70CA80A0
:103CB000C8708B60C8604861521C61789142EED830
:103CC000204603F0D3FE204603F0A3FD002120464A
:103CD00004F04EFA204603F0F0FD2046BDE8104007
:103CE00004F034B910B50446054920460968C9698D
:103CF00088474FF48011E0684161012010BD000049
:103D00005405002010B50446054920460968096A93
:103D100088474FF40011E0684161012010BD0000A8
:103D20005405002002691369526BCA4002F0010277
:103D300043EAC21200EB810080698068104070473E
:103D40002DE9F84F06460F460020009007EB87004C
:103D500006EBC00000F58E74A1696069401AA16885
:103D6000814200D20846C01C4FEA900A06EB870841
:103D7000D8F81800806900904FF0010922E0151A68
:103D8000A268AA4200D21546E81C4FEA900AABB2DC
:103D9000FAB23046E16804F006FAE0682844E060D0
:103DA000A0692844A061D8F8181089690091616958
:103DB000814207D1207809FA00F13069426B22EA8A
:103DC00001014163009880B2504505D96269A0693C
:103DD000904201D2002AD2D10120BDE8F88F0029FB
:103DE00004D0016841F0010101607047016821F0D1
:103DF00001010160704700002DE9F003016821F026
:103E0000010101600021016041608160C1600161C8
:103E100021214161444A45494FF03D08904204D177
:103E2000C1F80880BDE8F0037047414A4FF474645C
:103E3000904203D18C60BDE8F00370473D4A4FF4D7
:103E40007415904203D18D60BDE8F00370473A4A83
:103E50004FF07466904203D18E60BDE8F003704766
:103E6000364B374A984203D1CA60BDE8F003704729
:103E7000DFF8D0C0344B604503D1CB60BDE8F00320
:103E80007047324FDFF8C8C0B84204D1C1F80CC047
:103E9000BDE8F0037047DFF8BC904FF03D57484550
:103EA00003D1CF60BDE8F0037047DFF8AC902B4939
:103EB000484504D1C1F80080BDE8F0037047DFF841
:103EC000A080404503D10C60BDE8F0037047254C4D
:103ED000A04203D10D60BDE8F0037047224CA04220
:103EE00003D10E60BDE8F0037047204C2049A0428A
:103EF00003D10A60BDE8F00370471E4A904203D127
:103F00000B60BDE8F00370471B4A904204D1C1F832
:103F100000C0BDE8F0037047184A9042F9D10F6025
:103F2000BDE8F003704700001060024000600240EE
:103F300028600240406002405860024070600240C9
:103F40003D00002088600240400F0020A060024039
:103F500000003D20B8600240106402400864024046
:103F60002864024040640240586402407064024089
:103F70000C64024088640240A0640240B8640240BD
:103F800001460020096811F0010F00D001207047A0
:103F900010B402681C4B1A40D1F80CC00B688C6935
:103FA00043EA0C03D1F814C04CEA040C43EA0C03B6
:103FB000D1F81CC043EA0C03D1F820C043EA0C033B
:103FC000D1F824C043EA0C03D1F828C043EA0C031B
:103FD000D1F834C043EA0C03D1F838C043EA0C03EB
:103FE0001A430260426922F00702D1F830C0CB6A5E
:103FF00043EA0C031A4342610A6942604A688260DC
:104000008968C16010BC70473F801CF041607047F8
:1040100070B504462DED0A8B002200204B1E002BAC
:1040200007DD14F800C06244D2B2401CC0B298420E
:10403000F7DB601810F8010C904202D0A07802283B
:104040007ED12078AA287BD16078AF2878D1A0785B
:1040500000219FEDFD8BFE4D012800F0BE8003285E
:1040600000F02E81042800F09F81022800F0C88112
:104070000B2865D185F81301A5F81411207985F86E
:1040800011016079A179000200B20843FCF7E5FB59
:1040900053EC182BFCF772FBFCF760FC0CEE100ADB
:1040A00085ED3ACAE079217A000200B20843FCF7B4
:1040B000D4FB53EC182BFCF761FBFCF74FFC09EE2B
:1040C000900AC5ED3B9A607AA17A000200B20843DB
:1040D000FCF7C3FB53EC182BFCF750FB9FEDDE1BEA
:1040E00053EC112BFCF7D8FAFCF738FC09EE100A58
:1040F00085ED3C9AE07A217B000200B20843FCF790
:10410000ACFB9FEDD7BB53EC1B2BFCF737FBFCF74D
:1041100025FC0AEE100A85ED40AA607BA17B000217
:1041200000B20843FCF799FB53EC1B2BFCF726FB72
:10413000FCF714FC0AEE900AC5ED41AAE07B00E012
:10414000BBE00002217C00B20843FCF786FB53EC85
:104150001B2BFCF713FBFCF701FC0BEE100A85EDA3
:1041600042BA607CA17C000200B20843FCF775FBF8
:1041700053EC182BFCF702FBFCF7F0FBC5F8F4003E
:10418000E07C217D000200B20843FCF766FB53ECA3
:10419000182BFCF7F3FAFCF7E1FBC5F8F800607D9B
:1041A000A17D000200B20843FCF757FB53EC182B2B
:1041B000FCF7E4FAFCF7D2FBC5F8FC00AA4890ED46
:1041C000000AF1EE400AB4EEE0CAF1EE10FA80F017
:1041D0002B81B0EE60CA00F02EB9012085F81301E2
:1041E000A5F81411207928706079A179000200B235
:1041F0000843A0386860E079217A000200B20843E1
:10420000C0F17800A860607AA17A000200B2084389
:104210006861E07A000201B2207B0843FCF71DFBD5
:1042200053EC182BFCF7AAFAFCF798FBE861607BCB
:10423000A17B000200B20843FCF70FFB53EC182BE4
:10424000FCF79CFAFCF78AFB2862E07B217C0002E9
:1042500000B20843FCF701FB53EC182BFCF78EFA75
:10426000FCF77CFB6862607CA17C000200B2084322
:10427000FCF7F3FA53EC182BFCF780FAFCF76EFB13
:10428000A862E07C217D000200B20843FCF7E5FA59
:1042900053EC182BFCF772FAFCF760FBE862607DC8
:1042A000A17D000200B20843FCF7D7FA53EC182BAB
:1042B000FCF764FAFCF752FB2863BDEC0A8B70BD77
:1042C000032085F81301A5F81411207985F834002E
:1042D0006079A179000200B20843A038A863E079B0
:1042E000217A000200B20843C0F17800E863607AE6
:1042F000A17A000200B20843A864E07A217B0002A0
:1043000000B20843FCF7A9FA53EC182BFCF736FA75
:10431000FCF724FB2865607BA17B000200B2084308
:10432000FCF79BFA53EC182BFCF728FAFCF716FB6A
:104330006865E07B217C000200B20843FCF78DFA3F
:1043400053EC182BFCF71AFAFCF708FBA865607C05
:10435000000201B2A07C0843FCF77FFA53EC182B53
:10436000FCF70CFAFCF7FAFAE865E07C217D000224
:1043700000B20843FCF771FA53EC182BFCF7FEF976
:10438000FCF7ECFA2866607DA17D000200B20843CC
:10439000FCF763FA53EC182BFCF7F0F9FCF7DEFAA4
:1043A0006866BDEC0A8B70BD042085F81301A5F882
:1043B0001411207985F89C006079A179000200B27F
:1043C0000843C0F17D00C5F8A000E079217A000221
:1043D00000B20843C0F13C00C5F8A400607AA17A9D
:1043E000000200B20843FCF738FA53EC182BFCF734
:1043F000C5F9FCF7B3FAC5F8B400BDEC0A8B70BD83
:10440000022085F81301A5F81411207985F86800B9
:1044100060798038E866A079C0F160002867E079AB
:10442000E867BDEC0A8B70BDB4EEC0CAF1EE10FABD
:1044300001DDB0EE40CA85ED3ACAF4EEE09AF1EE45
:1044400010FA16D212E000000000000000005940EF
:10445000F4200020000000006666666666A64C40F8
:10446000000000000000244068020020B0EE600A56
:1044700006E0F4EEC09AF1EE10FA01DCB0EE690A43
:1044800085ED3B0A244890ED000AF1EE400AB4EEB7
:10449000E09AF1EE10FA02D2B0EE609A06E0B4EEC5
:1044A000C09AF1EE10FA01DDB0EE409A85ED3C9A2B
:1044B0001AEE102A19491A488A4202D9BBEE09AAF3
:1044C00005E01AEE102A824201DDB3EE09AA85ED5D
:1044D00040AA1AEE902A8A4202D9FBEE09AA05E008
:1044E0001AEE901A814201DDF3EE09AAC5ED41AA48
:1044F0001BEE100A0B49884202D99FED0BBA06E069
:104500001BEE100A0949884201DD9FED09BA85EDCD
:1045100042BABDEC0A8B70BD6C0200200000C8C11D
:104520000000C841000034C3000034C3000034431D
:1045300000003443704710B5441E05D34FF47A7021
:1045400000F003F8641EF9D210BD012004F03EBE55
:104550000649002804D0086840F48060086070476D
:10456000086820F48060086070470000003C02404A
:1045700070B506460025002905D0012927D002295B
:1045800028D04FF4407500F087F809281ED1134C4D
:10459000206820F440702060206828432060206854
:1045A00020F0F8002060206846F0020108432060F7
:1045B000206840F48030206000F06EF8216821F01F
:1045C00002012160216821F0F801216070BD4FF4E3
:1045D0008075D8E74FF40075D5E70000103C024025
:1045E00009200F490A6812F4803F01D0012070476A
:1045F0000A6812F0100F01D0062070470A6812F402
:10460000807F01D0022070470A6812F0EF0F01D0BE
:1046100007207047096811F0020FFAD00820704790
:104620000C3C02400248016841F0004101607047C3
:10463000103C024070B506460D4600F02DF80928E2
:1046400013D10A4C206820F440702060206840F4A8
:1046500000702060206840F001002060356000F0AC
:104660001BF8216821F00101216070BD103C02405F
:104670000548006810F0004F04D005480349016068
:104680000449016070470000103C02402301674567
:10469000043C0240AB89EFCD08B509200090FFF73C
:1046A0009FFF00909DF80000012806D1FFF798FFBA
:1046B00000909DF800000128F8D09DF8000008BD8A
:1046C0002DE9F00100220126032706FA02FC0B68FF
:1046D00003EA0C03634538D10568530007FA03F475
:1046E000A54305600D79D0F800809D4045EA080596
:1046F00005600D79012D01D0022D17D18568A543E4
:1047000085604D79D0F808809D4045EA08058560B0
:10471000456825EA0C0CC0F804C0D0F804C08D79B7
:104720009540ADB24CEA050CC0F804C0D0F80CC0FE
:104730002CEA040CC0F80CC091F807C00CFA03F383
:10474000D0F80CC043EA0C03C360521C102ABCD33F
:10475000BDE8F00170474B07DB0E9A40C90800EB3B
:104760008100016A4FF00F0C0CFA03F399430162C8
:10477000016A1143016270474183704701837047AA
:1047800010B5164A164B5178002917D04FF0000C7F
:10479000012919D05854481CC0B25070642812D353
:1047A00082F801C0184600F071F900280BD00C49BE
:1047B000BDE81040A1F1C00000F016B8B52802D144
:1047C00018700120507010BD622802D082F801C01C
:1047D00010BD58700220507010BD0000240200204F
:1047E00090300020000000002DE9F04105462DED3D
:1047F000068B0C4601262E700020688085F86060CC
:1048000085F85F6085F85E6085F85D6095ED0A0A61
:10481000B8EEC00A85ED0C0A95ED0B0AB8EEC00A99
:1048200085ED0D0AA07E6871677F2F71A07FE17F03
:1048300094F8212000EB012094F82010090401EBEA
:1048400002610844FCF709F841EC100B9FED869BD0
:1048500051EC100B53EC192BFBF790FF41EC180BAC
:1048600085ED068B94F8220094F8231094F8252007
:1048700000EB012094F82410090401EB02610844C4
:10488000FBF7EBFF41EC100B53EC192B51EC100B29
:10489000FBF774FF41EC190B85ED029B94F8360091
:1048A00094F8371094F8392000EB012094F8381070
:1048B000090401EB02610844A86294F83A1094F8E4
:1048C0003B2094F83D3001EB022194F83C20120487
:1048D00002EB03621144664A82FB00308310A3EBB3
:1048E000E070A86282FB01108110A1EBE070E86229
:1048F00094F83E0094F8411094F83F2040EA01609B
:1049000094F84010090441EA0221084300EE100A1D
:10491000B8EEC00AB1EE400A10EE100AFBF7DAFF5B
:104920009FED55AB53EC1A2BFBF728FFFCF716F85D
:10493000286494F8420094F8451094F8432040EA23
:10494000016094F84410090441EA0221084300EE92
:10495000100AB8EEC00A10EE100AFBF7BBFF53ECCA
:104960001A2BFBF70BFFFBF7F9FFC5F8A00094F833
:104970002E0094F8311094F82F2040EA016094F84A
:104980003010090441EA02210843A5F8B40094F864
:10499000320094F8351094F8332040EA016094F81E
:1049A0003410090441EA02210843A5F8B60094F83E
:1049B0004A0094F84D1094F84B2040EA016094F8B6
:1049C0004C10090441EA02210843A5F8B80094F804
:1049D0004E0094F8511094F84F2040EA016094F88A
:1049E0005010090441EA02210843FBF747FF9FEDFD
:1049F000241B53EC112BFBF74FFEFBF7AFFFC5F861
:104A0000B000062F0ED395F8900058B985F8906045
:104A100085ED1C8B85ED1A9B9FED1B0A85ED200A09
:104A200085ED210A95F89000A8B195ED1A0B51EC8F
:104A3000190B53EC102BFBF729FEFBF72CFFA86793
:104A400095ED1C0B51EC180B53EC102BFBF71EFED5
:104A5000FBF721FFE86795F85C00401C85F85C00D7
:104A6000BDEC068BBDE8F08100000000D012634170
:104A700067666666000000000000000000408F408E
:104A8000F168E388B5F8E43E0000000030B400228D
:104A90000023017990F805C001EB0C211FFA81FC7D
:104AA0001149A1F804C0BCF1640F02D930BC002048
:104AB000704702210CF10604022C08D9455C2A44F7
:104AC000D2B21344DBB2491C89B2A142F6D360448E
:104AD0008179914205D1C079984202D130BC012040
:104AE000704730BC002070472402002000B500EB66
:104AF00040010F4800EB810191ED000A81ED010AB0
:104B000005F03CFC00EE100ADFED0A0AB8EE400AA0
:104B100080EE201A81ED001A91ED000AD1ED010A14
:104B200030EE600A81ED020A91ED020A00BD00003C
:104B3000C41D00200024744970B50B480168001D95
:104B40000568001D0068084400280CD0074C0822A6
:104B5000A11C00F0A9F804F112012846BDE870403C
:104B6000042200F0A1B870BD107AFF1F36060020A5
:104B700030B41A4C217801290AD0E1680025B1F53A
:104B8000006F00D1E560A268E168914202D1257012
:104B900030BC704703D9C1F50062226102E0A2EB8C
:104BA000010222612269402A08D91FFA81FC4023B0
:104BB0004031E160A2F14001216105E01FFA81FC72
:104BC00093B21144E160256101212170044930BC98
:104BD00001EB0C028121FEF706BE00006C050020EF
:104BE0006E810020014901200870FEE720000020AE
:104BF00002494CF6CC40086070470000003000408D
:104C000000F014B870B505460C4645F2555000F05A
:104C100021F8284600F012F8204600F015F800F0C0
:104C200005F8BDE87040FFF7E3BF000002494AF60F
:104C3000AA20086070470000003000400149486029
:104C40007047000000300040014988607047000054
:104C5000003000400149086070470000003000400B
:104C600010B50121082000F0D5FC0B4880210180FF
:104C70000021021D1180094A1160094A491E116074
:104C80005321121F1180074A01211180018841F030
:104C90000101018010BD0000000C0040240C004008
:104CA0002C0C0040140C0040F0B40023002A18D94A
:104CB0000A24302537269C46B4EB107F04D905EB37
:104CC000107701F8137003E006EB107701F813700A
:104CD000000101EB430787F801C05B1CDBB2934284
:104CE000EAD3F0BC70470000002807D1044811B196
:104CF0000821FFF743BD0821FFF73EBD70470000C4
:104D000000000240002201230949042808D0052898
:104D10000DD10B704A708A7001210020FFF7E4BFAB
:104D20000A704B708A7000210846FFF7DDBF70479C
:104D30007D00002010B52DED048B9FEDBB8AF6EEB3
:104D4000008AF0EE009AB94890F840019FEDB89AB9
:104D5000002805D09FEDB78ADFEDB78AF0EE499ABB
:104D6000B64800780D281ED2DFE800F00720395938
:104D7000728BA4C5DEFBF9F8F700B04CD4ED010A44
:104D800030EE800A84ED010A0520FFF7BBFF94EDA9
:104D9000010AB4EEC80AF1EE10FA04DD84ED019ABE
:104DA0002078401C2070BDEC048B10BDA34CD4EDCA
:104DB000010A30EE800A84ED010A0420FFF7A2FF09
:104DC00094ED010AB4EEC80AF1EE10FAEBDD84EDC1
:104DD000019A2078401C2070BDEC048B10BD974CCC
:104DE000D4ED010A30EE800A84ED010A944800787F
:104DF00018B10520FFF786FF02E00420FFF782FFCD
:104E000094ED010AB4EEE80AF1EE10FAE4DD84ED67
:104E1000019A2078401C2070BDEC048B10BD874C9B
:104E2000D4ED010A30EE800A84ED010A0420FFF778
:104E300069FF94ED010AB4EEE80AF1EE10FAEBDD39
:104E400084ED019A2078401C2070BDEC048B10BDCD
:104E50007A4CD4ED010A30EE800A84ED010A052077
:104E6000FFF750FF94ED010AB4EEC80AF1EE10FA14
:104E7000EBDD84ED019A2078401C2070BDEC048BA2
:104E800010BD6E4CD4ED010A30EE800A84ED010AAB
:104E90000420FFF737FF94ED010AB4EEC80AF1EEE3
:104EA00010FAEBDD84ED019A2078401C2070BDECF7
:104EB000048B10BD614CD4ED010A30EE800A84ED04
:104EC000010A5A4890F8860018B10520FFF71AFF2A
:104ED00002E00420FFF716FF94ED010AB4EEE80AA1
:104EE000F1EE10FAE3DD84ED019A2078401C207089
:104EF000BDEC048B10BD514CD4ED010A30EE800A9C
:104F000084ED010A0420FFF7FDFE94ED010AB4EEE2
:104F1000E80AF1EE10FAEBDD84ED019A2078401CEE
:104F20002070BDEC048B10BD444CD4ED010A30EE72
:104F3000800A84ED010A0520FFF7E4FE94ED010AE2
:104F4000B4EEC80AF1EE10FAEBDD84ED019A207898
:104F5000401C2070BDEC048B10BD4FE037E017E023
:104F6000FFE7364CD4ED010A30EE800A84ED010AE9
:104F70000420FFF7C7FE94ED010AB4EEC80AF1EE73
:104F800010FAE7DD84ED019A2078401C2070E1E7FB
:104F90002A4CD4ED010A30EE800A84ED010A234840
:104FA00090F8C60118B10520FFF7ACFE02E004201E
:104FB000FFF7A8FE94ED010AB4EEE80AF1EE10FA4C
:104FC000C8DD84ED019A2078401C2070C2E71B4C9C
:104FD000D4ED010A30EE800A84ED010A0420FFF7C7
:104FE00091FE94ED010AB4EEE80AF1EE10FAB1DD9B
:104FF00084ED019A2078401C2070ABE70F4CD4ED73
:10500000010A30EE800A84ED010A0420FFF77AFEDF
:1050100094ED010AB4EEE90AF1EE10FA9ADD84ED9E
:10502000019A0020207095E7CDCCCC3DE0270020F0
:10503000000000008988083DABAA2A3E7C000020C1
:10504000E40100200020DFED0B0A20EE200ABDEE77
:10505000C00A10EE101A00290BDD00BF00BF00BF10
:1050600000BF00BF00BF00BF00BF00BF401C8842A0
:10507000F3DB7047001B374A10B582B000240121D2
:10508000084600F0ABFA01208DF8040000218DF8ED
:1050900006108DF805000820009069460B48FFF7C0
:1050A0000FFB0520FFF72EFEB5EE000AFFF7CAFF43
:1050B0000420FFF727FEB5EE000AFFF7C3FF601CD0
:1050C000C4B2022CEDD302B010BD000000000240BB
:1050D000B4EEC10AF1EE10FA02DDB0EE410A7047FB
:1050E000B4EEE00AF1EE10FAF9D2B0EE600A7047C1
:1050F0002DE9F0438FB00646169D179C0F4690464B
:1051000099462248864204D90121880500F066FAB2
:1051100003E00121480500F061FA3046FEF76CFE1D
:105120003046FEF72DFF0028FAD10097CDF8048015
:10513000CDF80890402003900495002005904FF48E
:1051400080610691079008900990890134B1012C83
:1051500006D0022C06D0032C0BD107E00A9008E001
:105160000A9106E04FF400320A9202E04FF4403216
:105170000A920A910B9003210C910D900E906946B2
:105180003046FEF705FF0FB0BDE8F0830064024033
:1051900070B504460D4600212046FEF720FE20464D
:1051A000FEF7EEFE0028FAD129462046FEF72EFF34
:1051B0002046BDE870400121FEF711BEFEE77047B2
:1051C00010B44FF00F0CC27801240178002A23D0CC
:1051D000174A126802F4E062C2F5E062C2F30722E5
:1051E000C2F104032CFA02FC42789A40837803EA65
:1051F0000C031A43120101F1E02181F80024007828
:1052000000F01F0104FA01F14009800000F1E020E4
:10521000C0F8001110BC704701F01F0004FA00F044
:105220004909890001F1E021C1F8800110BC7047F3
:105230000CED00E0034940F0FD7040F08060086034
:10524000704700000CED00E00449C879012804D142
:105250008878FF2801D2401C8870704738000020F1
:1052600070B5134CE079012821D1FAF7A9FF054662
:10527000A17809B1481EA070A07898B9E07888B9E3
:1052800000F096F90B48627950F82210A16220795B
:10529000824207D0886B401C8863E068401CE06055
:1052A000FAF7AEFF2846BDE87040FAF78DBF70BD33
:1052B000380000208C15002010B5094CE079012839
:1052C0000CD1FAF77DFFA17821B9E178FF2901D24D
:1052D000491CE170BDE81040FAF776BF10BD000030
:1052E0003800002010B5104CE07901281BD1FAF7E6
:1052F00067FFE17899B1491EC9B2E17019B1BDE803
:105300001040FAF761BFA17819B1BDE81040FAF773
:105310005BBFFAF759FFBDE8104000F025B9BDE8C2
:105320001040FAF751BF10BD3800002070B5044698
:105330002078032801D0012070BDFAF741FF05460F
:10534000A07A60B1002301221946204600F0C2F87D
:105350002846FAF739FF00F007F9002070BD2089D0
:105360004FF6FF71884206D2401C20812846FAF78A
:105370002BFF002070BD2846FAF726FF332070BDB2
:105380007047000070B5044613480078002822D109
:105390001248007800281ED1002C1CD0FAF710FF0C
:1053A00084460F48016891F834200E4891F8355032
:1053B000835CAB43835433B90B4891F836200378B0
:1053C00023EA02020270CC626046FAF7FDFEBDE8F5
:1053D000704000F0C9B870BD3A0000203B000020CA
:1053E000580000206C0000203E0000202DE9F04114
:1053F00000F05CF8FAF7E4FE2A4D296B491C29639A
:10540000FAF7E2FEE879012849D1687A01260027F7
:10541000B0B1012816D0022816D001206F720028E2
:105420003DD0EC6A94F832003F2838D0DFF878801D
:10543000FAF7C6FEE16A59B3491EE16239B127E0C5
:105440000120ECE70020EAE701206E72E7E794F81C
:10545000301011F0370F06D001F0C80184F8301079
:1054600084F8316001E084F8317094F8301011F064
:10547000080F0DD194F83610AA791143A97194F848
:10548000341094F8353018F801201A4308F8012038
:105490006469FAF799FE94F832003F28C8D1BDE854
:1054A000F0810000380000206C00002005490888C9
:1054B000401C80B20880022803D30020088000F03E
:1054C00003B870477800002001480068FFF72EBF3E
:1054D0007400002070B50446174894F80AC010F80C
:1054E0000CC004EB0C05ED7A405D00EBCC00C5B2BE
:1054F000124850F825000026C662016290F830106C
:1055000021EA020280F8302080F8313012F0080FD2
:105510000DD10B4990F836208B791A438A713431BA
:1055200090F8353011F80C201A4301F80C20214670
:1055300000F008F8284670BD80AD00088C150020EA
:105540003800002090F8342090F835C08B18DA7AB3
:1055500022EA0C02DA72002A05D18A7A90F8360023
:1055600022EA00008872704770B5FAF729FE0546F6
:105570000D4CA07898B9E07888B900F019F80B487C
:10558000627950F82210A1622079824207D0886B9C
:10559000401C8863E068401CE060FAF72AFE284659
:1055A000BDE87040FAF710BE380000208C150020CE
:1055B0000649054A8879105C01F134031B5CD25C12
:1055C00002EBC0004871704780AD00083800002031
:1055D000014801F094BD0000D00A0020054A0029CE
:1055E00003D01168084310607047116821EA000079
:1055F0001060704730380240054A002903D0116816
:10560000084310607047116821EA0000106070477D
:1056100034380240054A002903D01168084310605D
:105620007047116821EA000010607047403802405E
:1056300030B4DFF89CC0DCF8001001F00C01254DFF
:10564000002923D06C10042922D0082922D005601B
:10565000DCF8001001F0F00109091F4B595C0268E9
:1056600022FA01F14160DCF8002002F4E052920AD3
:105670009A5C21FA02F28260DCF8002002F46042B7
:10568000520B9A5CD140C16030BC70470560DFE7C7
:105690000460DDE7114A1168C1F38053116801F01D
:1056A0003F0133B1B4FBF1F11368C3F388135943DD
:1056B00005E0B5FBF1F11368C3F388135943126891
:1056C000C2F30142521C5200B1FBF2F10160BFE78C
:1056D000083802400024F40026000020043802406C
:1056E0002DE9F04F2DED028BFFB04FF4FA7102A8B7
:1056F000FAF713FF00260196A34C012525745022CA
:1057000002A9A24800F0E8F9267401A902A804F051
:105710005FFA9F4F386001A902A803F02DFF9D4C4E
:1057200084ED250A01A902A803F026FF84ED750A7D
:1057300001A902A804F04CFA00EE100AB8EEC00A63
:1057400084ED320A01A902A804F042FA00EE100A20
:10575000B8EEC00A84ED820A01A902A804F038FA62
:10576000C4F8040101A902A804F032FAC4F8000147
:1057700001A902A804F02CFAC4F8080101A902A8A2
:1057800004F026FAC4F8440201A902A804F020FAA1
:10579000C4F8400201A902A804F01AFAC4F84802A9
:1057A00001A902A804F014FA84F81C0101A902A8B6
:1057B00004F00EFA00EE100AB8EEC00A84ED480AB2
:1057C00001A902A803F0D8FE84ED4A0A01A902A8A3
:1057D00003F0D2FE84ED4D0A01A902A804F0F8F905
:1057E00000EE100AB8EEC00A84ED4E0A01A902A824
:1057F00004F0EEF900EE100AB8EEC00A84ED4C0A8F
:1058000001A902A804F0E4F9DFF88C81C8F80000CF
:10581000D4F82801FBF75EF89FED618B53EC182B51
:10582000FAF793FE41EC100B53EC102B9FED5E0B3F
:1058300051EC100BFAF7A2FFFBF790F8C4F8240123
:10584000D4F83401FBF746F853EC182BFAF77DFE39
:1058500041EC180BD4F83001FBF73CF853EC182B53
:10586000FAF78CFFFBF77AF8C4F82C01D4F838016A
:10587000FBF730F89FED4E1B53EC112BFAF765FE4A
:1058800041EC100B53EC102B9FED4B0B51EC100B1C
:10589000FAF774FFFBF762F8C4F83C0101A902A80B
:1058A00004F096F942F2107190FBF1F1444AC9B24A
:1058B00011736FF41C7311FB03F100EB01114148EC
:1058C00080FB01304311A3EBE07050736FF01803BD
:1058D00010FB03F001EB8000907304F58870D4F89E
:1058E0002CB190E80F10D4F828A1D4F8249104F535
:1058F0001474A4E80F10A4F5197404F59870C4F892
:105900006CB2C4F868A2C4F864920FC804F51C74A1
:105910000FC4A4F520744FF0630994F81C010A2801
:105920000DD9C8F80060C7F80090C4F80051C4F859
:105930000451C4F8085184F81C5102F099FD94F800
:105940005C020A280DD9C8F80060C7F80090C4F8B6
:105950004052C4F84452C4F8485284F85C5202F0F1
:1059600087FD94F81C11002907D0002004F038FEB0
:1059700094F85C12012004F033FE7FB0BDEC028B82
:10598000BDE8F08F00000000781E002000000E0827
:10599000F8010020E0270020FC01002000000000AA
:1059A00048AFBC9AF2D77A3E000000000000F03FFA
:1059B000F168E388B5F8E43E00000000008076401E
:1059C000604A00201F85EB510649002804D0086872
:1059D00040F0040008607047086820F00400086088
:1059E000704700000008065001460020024A126875
:1059F0000A4200D0012070470408065070B5002408
:105A000001214020FFF7F8FD0120FFF7DDFF42F202
:105A1000107504E0601C84B2642003F0D7FB012001
:105A2000FFF7E2FF08B9AC42F4D3AC4201D3012046
:105A300070BD002070BD00001C49884201D20020CA
:105A400070471B49884201D2082070471949884293
:105A500001D2102070471849884201D2182070479F
:105A60001649884201D2202070471549884201D248
:105A7000282070471349884201D2302070471249CC
:105A8000884201D2382070471049884201D2402014
:105A900070470F49884201D2482070470D4988421B
:105AA00001D2502070475820704700000040000885
:105AB0000080000800C00008000001080000020883
:105AC00000000408000006080000080800000A089A
:105AD00000000C0800000E0810B504460023002A40
